:020000040800F2
:10000000A00600204D1600085516000857160008D7
:10001000591600085B1600085D1600080000000075
:100020000000000000000000000000005F16000853
:10003000611600080000000063160008651600083D
:10004000F7020008F9020008FB020008FD020008A0
:10005000FF0200080103000803030008050300086D
:1000600007030008090300080B0300080D0300083C
:100070000F0300081103000813030008150300080C
:1000800017030008190300081B030008671600087F
:1000900067160008671600086716000825030008A1
:1000A0004F030008510300085303000855030008DC
:1000B00057030008590300085B0300085D030008AC
:1000C0005F0300086103000863030008650300087C
:1000D00067030008690300086B0300086D0300084C
:1000E0006F030008990300089B0300089D030008A4
:1000F0009F030008A1030008A3030008A50300084C
:10010000A7030008A9030008AB030008AD0300081B
:10011000AF030008B1030008B3030008B5030008EB
:10012000B7030008B9030008BB030008BD030008BB
:1001300000F002F800F03CF80AA090E8000C8244BD
:100140008344AAF10107DA4501D100F031F8AFF29A
:10015000090EBAE80F0013F0010F18BFFB1A43F0A5
:1001600001031847A4150000C4150000103A24BF6D
:1001700078C878C1FAD8520724BF30C830C144BF0C
:1001800004680C607047000000230024002500264E
:10019000103A28BF78C1FBD8520728BF30C148BFEA
:1001A0000B6070471FB5AFF300801FBD10B510BDC9
:1001B00001F06FFA1146FFF7F5FF00F06CF801F05F
:1001C0008DFAFFF7F3FF01F093FA00000EE0002232
:1001D00008E0002101E04B1C99B2B1F57A7FFADB0F
:1001E000531C9AB20A2AF4DB431E98B20028EEDCB4
:1001F000704708B54FF6FF70ADF8000003208DF88A
:10020000020010208DF803006946314800F042FBDF
:1002100008BD10B500214FF0006000F00BFA10BDD2
:1002200010B500F06DFF4FF4803000F089FF00F052
:10023000C6FF2849087008460078012826D11020FA
:1002400000F07FFC022000F069FC002000F0F6FFC7
:10025000002001F003F84FF4806000F0F7FF4FF446
:10026000E0114FF4803000F0CEFF012000F0D6FF07
:1002700000BF392000F087FF0028FAD0022000F0EC
:10028000D0FF00BF00F0D5FF0828FBD101213D20A1
:1002900001F09CF810BD10B5FFF7C2FFFFF7B9FFE2
:1002A000FFF7A7FF00F00AF910E00B4A1121012027
:1002B00000F068F9002407E0182000F096F8C82044
:1002C000FFF784FF601CC4B2102CF5DBEDE70000E3
:1002D000000C01401400002000000020704700BF07
:1002E000FEE700BFFEE700BFFEE700BFFEE7704786
:1002F0007047704770477047704770477047704746
:100300007047704770477047704770477047704735
:100310007047704770477047704770477047704725
:100320007047704710B54FF4807000F037FA48B14D
:100330004FF40071224800F057FB4FF480712048C1
:1003400000F050FB4FF4807000F039FA10BD704798
:1003500070477047704770477047704770477047E5
:10036000704770477047704770477047704710B5C7
:100370004FF4005000F012FA48B14FF48071104869
:1003800000F032FB4FF400710D4800F02BFB4FF4EE
:10039000005000F014FA10BD704770477047704766
:1003A0007047704770477047704770477047704795
:1003B000704770477047704770477047704700003C
:1003C000001401400EE0002208E0002101E04B1C77
:1003D00099B2B1F57A7FFADB531C9AB20A2AF4DBA0
:1003E000431E98B20028EEDC704710B504467148F1
:1003F000006800F47F407049C1F80C046F48006841
:100400004FF6FB7108406E49C1F80C086B48006854
:100410004FF6FE7108406A49C1F80C086648D0F8EA
:100420000C042043634908600120FFF7CBFF6448B8
:10043000D0F80C0840F00400604908600120FFF784
:10044000C1FF5E4800684FF6FB7108405C49C1F887
:100450000C0810BD10B504465648006800F47F40F3
:100460005549C1F80C04554800684FF6FB71084027
:100470005349C1F80C080846D0F80C0840F00100B8
:10048000C1F80C084C48D0F80C04204349490860D6
:100490000120FFF797FF4A48D0F80C0840F004000D
:1004A000464908600120FFF78DFF444800684FF679
:1004B000FB7108404249C1F80C0810BD00B53F4827
:1004C0000C3800686FF30B003D49C1F800083B4849
:1004D0000C38006840F2333108433949C1F800084C
:1004E0003548D0F8000400203349C1F8000408461C
:1004F000D0F8000440F03330C1F800042F48006801
:100500004FF6F77108432E49C1F80C082B480068D4
:100510004FF6FD7108402A49C1F80C0827480068C9
:100520004FF6FB7108402649C1F80C0821480068C5
:100530004FF6FF7108432049C1F80C041E20FFF755
:1005400041FF3820FFF751FF0C20FFF74EFF062038
:10055000FFF74BFF0120FFF748FF00BD70B50446D1
:100560000D461646012C01D1802400E0C024281934
:10057000C5B22846FFF739FF06F13000C0B2FFF7D9
:1005800069FF70BD70B506460C461546012E01D1B7
:10059000802600E0C026A019C4B22046FFF725FF40
:1005A00003E015F8010BFFF755FF28780028F8D174
:1005B00070BD00000C140140001001400C08014007
:1005C0000000014032490143324A1160704770B562
:1005D000002100230F22C4780CB32E4C246804F4AD
:1005E000E064C4F5E064210AC1F10403CA40447820
:1005F00004FA03F18478144021430901264C06785B
:10060000A155047804F01F050124AC4005786D1154
:100610004FF0E02606EB8505C5F8004109E00478B7
:1006200004F01F040125A5401C4C0678761144F8FF
:10063000265070BD1A4A0A400243164B1B1F1A600F
:10064000704741B1134A121D126802434FF0E02374
:10065000C3F8102D07E00F4A121D126882434FF0B5
:10066000E023C3F8102D7047042808D14FF0E02193
:10067000096941F004014FF0E022116107E04FF0F9
:10068000E021096921F004014FF0E0221161704777
:100690000000FA050CED00E000E400E080E100E07D
:1006A00080FFFF1F0020484908604849C1F8040442
:1006B000454908310860091D086045484249143120
:1006C00008607047002140498279002A40D03F4AA3
:1006D000D2F8002403689A433C4BC3F800241A461E
:1006E000D2F8042403689A430B1D1A60027911445E
:1006F0000A6803681A430A60344AD2F80824036877
:100700009A43324BC3F808241A46D2F80C240368E3
:100710009A432D4B0C331A604279102A10D12B4A80
:10072000D2F8082403681A43284BC3F808241A4651
:10073000D2F80C2403681A43244BC3F80C240DE0B0
:100740002149427911440A6803681A430A6005E0A6
:10075000027911440A6803689A430A6070470021CD
:10076000016001710C2141710021817170471649AE
:10077000103109680143154AC2F810147047014648
:100780000020114A143212680A4201D0012000E010
:10079000002070470C491431086070470146002062
:1007A0000022094B1B6803EA0102084BD3F81434FA
:1007B0000B4202D00AB1012000E00020704702493C
:1007C000143108607047000000040140000001403F
:1007D000FFFF0F0010B50446C748844208D101212D
:1007E000042000F00DFE0021042000F009FE46E088
:1007F000C248844208D10121082000F001FE0021F6
:10080000082000F0FDFD3AE0BD48844208D10121F6
:10081000102000F0F5FD0021102000F0F1FD2EE089
:10082000B848844208D10121202000F0E9FD0021D0
:10083000202000F0E5FD22E0B348844208D10121E8
:10084000402000F0DDFD0021402000F0D9FD16E041
:10085000AE48844208D10121802000F0D1FD002162
:10086000802000F0CDFD0AE0A948844207D1012193
:10087000801500F0C5FD0021A01500F0C1FD10BDE0
:1008800010B50121084600F0BBFD0021012000F059
:10089000B7FD10BDF0B5002200230024002500267E
:1008A000002791F803C00CF00F0291F803C01CF070
:1008B000100F03D091F802C04CEA0202B1F800C058
:1008C0001CF0FF0F31D0066800242BE04FF0010C24
:1008D0000CFA04F5B1F800C00CEA0503AB4220D1D4
:1008E000A5004FF00F0C0CFA05F7BE4302FA05FC09
:1008F0004CEA060691F803C0BCF1280F06D14FF070
:10090000010C0CFA04FCC0F814C00AE091F803C012
:10091000BCF1480F05D14FF0010C0CFA04FCC0F8F3
:1009200010C0641C082CD1D30660B1F800C0BCF123
:10093000FF0F34DD466800242EE004F1080C4FF070
:10094000010E0EFA0CF5B1F800C00CEA0503AB423B
:1009500021D1A5004FF00F0C0CFA05F7BE4302FAA7
:1009600005FC4CEA060691F803C0BCF1280F05D13E
:1009700004F1080C0EFA0CFEC0F814E091F803C064
:10098000BCF1480F07D104F1080C4FF0010E0EFA2C
:100990000CFEC0F810E0641C082CCED34660F0BDFD
:1009A0004FF6FF710180022181700421C1707047F0
:1009B0000246002093680B4201D0012000E0002095
:1009C00070470146886880B2704702460020D368AD
:1009D0000B4201D0012000E0002070470146C868AA
:1009E00080B2704701617047416170470AB101618F
:1009F00000E041617047C16070474FF480320A43A4
:100A00008261816182618269826970470022414B03
:100A10001A684FF680731A4042EA00120A433D4BAF
:100A20001A6070473C49C8617047F0B50022002346
:100A30000024002500F00046B6F1004F02D1354EEB
:100A4000F46901E0334E7468C0F3034582B200F4E8
:100A50004016B6F5401F08D124F070642D4E76681C
:100A600026F070662B4F7E6012E000F48016B6F51B
:100A7000801F06D1032606FA05F39C4344F07064F8
:100A800006E0460D360102FA06F6B44344F07064FF
:100A900021B1460D360102FA06F6344300F0004655
:100AA000B6F1004F02D11B4EF46101E0194E7460A3
:100AB000F0BD30B500228B071C0F0F2303FA04F2A0
:100AC000144B08338C1053F8244094438D1043F892
:100AD00025408C1053F824308C07240F00FA04F4BE
:100AE00023430C4C08348D1044F8253030BD0A499E
:100AF000DC3108607047000000080140000C014034
:100B0000001001400014014000180140001C014089
:100B10000020014000000140000020420021FF4A67
:100B2000116801F03801014311607047FB49096801
:100B300021F00801F94A116011460968014311606A
:100B40007047F649096821F01001F44A1160114616
:100B50000968014311607047F148F0494860F14865
:100B600048607047EE48ED494860EE48486070477D
:100B7000EA48006940F08000E84908617047E748AA
:100B8000006940F08000E549086170470420E349AE
:100B9000C96801F00101012901D101200EE0DF49FE
:100BA000C96811F0040F01D0022007E0DB49C968D1
:100BB00011F0100F01D0032000E00420704700B5B1
:100BC00002460423FFF7E2FF034603E0FFF7DEFFE0
:100BD0000346521E012B01D1002AF7D102B9052389
:100BE000184600BD30B5044604254FF43020FFF709
:100BF000E6FF0546042D19D1C848006940F00200FF
:100C0000C649086108464461006940F04000086137
:100C10004FF43020FFF7D3FF0546052D06D0BF481F
:100C2000006941F6FD710840BC490861284630BDA5
:100C300010B504244FF43020FFF7C1FF0446042C04
:100C400018D1B648006940F00400B449086108466C
:100C5000006940F0400008614FF43020FFF7AFFF1B
:100C60000446052C06D0AD48006941F6FB710840EA
:100C7000AA490861204610BD00B502460423FFF7CB
:100C800085FF034603E0FFF781FF0346521E012B59
:100C900001D1002AF7D102B90523184600BD10B5CD
:100CA00004244FF43020FFF7E7FF0446042C18D14A
:100CB0009A48006940F004009849086108460069B4
:100CC00040F0400008614FF43020FFF7D5FF0446A4
:100CD000052C06D09148006941F6FB7108408F4908
:100CE0000861204610BD00208C49C96911F0020F2F
:100CF00001D0012000E00020704730B5A524042574
:100D0000FFF7F1FF00B100244FF43020FFF757FF49
:100D10000546042D3AD18248804988608148886020
:100D20000846006940F0200008610846006940F06C
:100D3000400008614FF43020FFF741FF0546042DC5
:100D40001BD17648006941F6DF710840734908619C
:100D50000846006940F01000086173480480E8020A
:100D6000FFF72DFF0546052D10D06C48006941F6B0
:100D7000EF7108406949086108E0052D06D0674811
:100D8000006941F6EF71084064490861284630BDAA
:100D9000F0B504460D4604260027F002FFF70FFFCA
:100DA0000646042E26D15D48006940F001005B49EB
:100DB00008612580F002FFF702FF0646042E10D1DD
:100DC000A71C280C3880F002FFF7F9FE0646052E16
:100DD00010D05248006941F6FE7108404F49086141
:100DE00008E0052E06D04D48006941F6FE71084026
:100DF0004A4908613046F0BD70B504460D460426E8
:100E0000F002FFF7DCFE0646042E13D143480069CA
:100E100040F00100414908612580F002FFF7CFFE54
:100E20000646052E06D03D48006941F6FE71084091
:100E30003A490861304670BD70B504460D46042637
:100E4000F002FFF7BCFE0646042E17D134483349A2
:100E50008860344888600846006940F010000861E6
:100E60002580F002FFF7ABFE0646052E06D02B4884
:100E7000006941F6EF71084028490861304670BDAD
:100E80002DE9F04304464FF6FF752E462F46A8463F
:100E90004FF00409E443E5B2C4F30726C4F307475F
:100EA0004FEA14684FF40050FFF789FE8146B9F10C
:100EB000040F4ED11A48194988601A4888600846BC
:100EC000006940F010000861FF2D07D01648083077
:100ED00005804FF40050FFF772FE8146B9F1040F10
:100EE00009D1FF2E07D010480A3006804FF4005079
:100EF000FFF765FE8146B9F1040F09D1FF2F07D036
:100F000009480C3007804FF40050FFF758FE814627
:100F1000B9F1040F13D1B8F1FF0F07E00020024030
:100F200023016745AB89EFCD00F8FF1F07D06F485D
:100F3000A0F80E884FF40050FFF741FE8146B9F14A
:100F4000050F06D06A48006941F6EF71084068490C
:100F500008614846BDE8F08330B5044604254FF4E7
:100F60003020FFF72CFE0546042D41D16148604931
:100F70008860614888600846006940F02000086188
:100F80000846006940F0400008614FF43020FFF748
:100F900016FE0546042D22D15548006941F6DF7141
:100FA0000840534908610846006940F01000086194
:100FB0001CB100205149088002E0A5204F4908805B
:100FC0004FF43020FFF7FBFD0546052D10D04848B3
:100FD000006941F6EF7108404549086108E0052DB8
:100FE00006D04348006941F6DF7108404049086176
:100FF000284630BDF0B504460D46164604273D4848
:101000003B4988603C488860F802FFF7D8FD0746F6
:10101000042F19D13648006940F0100034490861A6
:1010200046F0F800284320433449891C0880F80220
:10103000FFF7C5FD0746052F06D02D48006941F68C
:10104000EF7108402A4908613846F0BD2848C06958
:10105000800870472648006A7047002024490968C4
:1010600011F0200F01D0012000E00020704729B1CD
:101070001F4A126902431E4B1A6104E01C4A12699E
:1010800082431B4B1A61704701460020012908D199
:10109000174AD26912F0010F01D0012008E00020A8
:1010A00006E0134AD2680A4201D0012000E0002085
:1010B00070470F49C860704704200D49C96801F0A6
:1010C0000101012901D101200EE00949C96811F08F
:1010D000040F01D0022007E00549C96811F0100F84
:1010E00001D0032000E004207047000000F0FF1F43
:1010F0000020024023016745AB89EFCD00F8FF1FB8
:10110000DB48006840F00100D949086008464068A3
:10111000D8490840D649486008460068D649084082
:10112000D34908600846006820F48020086008461B
:10113000406820F4FE0048604FF41F00886070474C
:10114000CB49096821F48031C94A11601146096808
:1011500021F480211160B0F5803F03D0B0F5802FDD
:101160000ED106E0C249096841F48031C04A1160DD
:1011700007E0BF49096841F4A021BD4A116000E0C1
:1011800000BF00BF704710B50146002200230020B9
:101190004A11012A02D1B64C236806E0022A02D184
:1011A000B34C236A01E0B24C636A01F01F020124D0
:1011B00094401C4201D0012000E0002010BD70B519
:1011C00000240025002600BF3120FFF7DCFF064683
:1011D000641CB4F5A06F01D0002EF5D03120FFF7CC
:1011E000D2FF08B1012500E00025284670BD00218E
:1011F0009F4A116821F0F80141EAC001116070476F
:101200009E49086070470022994B5A6822F47C126C
:1012100040EA01031A43964B5A60704797490866A3
:1012200070470021924A516821F003010143516047
:1012300070478F48406800F00C00704700218C4ACE
:10124000516821F0F0010143516070470021884A44
:10125000516821F4E0610143516070470021844AE4
:10126000516821F4605141EAC0015160704729B1D1
:101270007F4A527A02437E4B5A7206E07C4A527A87
:10128000C343DBB21A407A4B5A7270477B49D8315C
:10129000086070470021764A516821F440410143BB
:1012A000516070470021724A20321170704A82F8F2
:1012B0002010012802D004280AD104E001216C4A40
:1012C0002032117005E00521694A2032117000E0DA
:1012D00000BF00BF70476A49086070476449096AE7
:1012E0000143634A11627047654944390860704799
:1012F00030B500210022002300245D4D6D6805F00B
:101300000C0121B1042905D0082923D105E05D4D48
:10131000056022E05B4D05601FE0554D6D6805F4EA
:101320007012534D6D6805F48033022505EB92422F
:101330001BB9554D554305600BE04D4D6D6815F4D7
:10134000003F03D0504D5543056002E04D4D5543DD
:10135000056002E04B4D056000BF00BF444D6D6865
:1013600005F0F0010909494D6C5C0568E5404560F0
:101370003F4D6D6805F4E061090A444D6C5C4568B9
:10138000E54085603A4D6D6805F46051C90A3F4DEE
:101390006C5C4568E540C560354D6D6805F44041BD
:1013A000890B3A4D10356C5CC568B5FBF4F50561E9
:1013B00030BD29B12E4A526902432D4B5A6104E0D7
:1013C0002B4A526982432A4B5A61704729B1284AF5
:1013D00092690243264B9A6104E0254A926982434E
:1013E000234B9A61704729B1214AD2690243204BAD
:1013F000DA6104E01E4AD26982431D4BDA6170470C
:1014000029B11B4AD2680243194BDA6004E0184A3A
:10141000D2688243164BDA60704729B1144A1269C8
:101420000243134B1A6104E0114A12698243104BC4
:101430001A61704712494039086070470F49C86403
:1014400070470B49C87170470948406A40F0807086
:1014500007494862704701460020054A92680A42DF
:1014600001D0012000E000207047014988727047D8
:10147000001002400000FFF8FFFFF6FE00004242AD
:101480008004424200127A0000093D00150000204D
:1014900000200021654A126842F48032634B1A60D2
:1014A00000BF624A126802F40031401C11B9B0F565
:1014B000A06FF6D15D4A126812F4003F01D00121FD
:1014C00000E00021012942D1594A126842F010027D
:1014D000574B1A601A46126822F003021A601A4625
:1014E000126842F002021A60504A52684F4B5A602A
:1014F0001A4652685A601A46526842F480625A602C
:101500001A46526822F47C125A601A46526842F413
:10151000E8125A601A46126842F080721A6000BFE0
:10152000424A126812F0007FFAD0404A526822F014
:1015300003023E4B5A601A46526842F002025A6059
:1015400000BF3A4A526802F00C02082AF9D17047EB
:1015500010B5FFF79DFF10BD10B53448006840F08E
:1015600001003249086008464068324908402F4966
:10157000486008460068304908402C490860084621
:10158000006820F4802008600846406820F4FE00CF
:1015900048604FF41F008860FFF7DAFF10BD10B5F8
:1015A000002000210022214B5B6803F00C0020B1D9
:1015B000042806D0082828D107E0204B204C2360BF
:1015C00027E01E4B1E4C236023E0184B5B6803F49E
:1015D0007011164B5B6803F48032022303EB9141D8
:1015E00022B9184B4B43164C23600DE00F4B5B6840
:1015F00013F4003F04D0134B4B43114C236003E022
:101600000E4B4B430E4C236003E00C4B0C4C236001
:1016100000BF00BF054B5B68C3F303130A4CE05CDB
:10162000074B1B68C340064C236010BD00100240EE
:10163000002002400000FFF8FFFFF6FE00127A00D3
:101640002C00002000093D003000002009488047A0
:1016500009480047FEE7FEE7FEE7FEE7FEE7FEE794
:10166000FEE7FEE7FEE7FEE704480549054A064BAC
:10167000704700005915000831010008A000002043
:10168000A0060020A0020020A002002070477047A2
:101690007047754600F028F8AE4605006946534687
:1016A00020F00700854618B020B5FFF7DDFFBDE844
:1016B00020404FF000064FF000074FF000084FF0B9
:1016C000000B21F00701AC46ACE8C009ACE8C0094A
:1016D000ACE8C009ACE8C0098D4670470446AFF3DA
:1016E00000802046FEF76DFD004870474000002056
:1016F00003494FF01800ABBE70470000090000001E
:101700002600020070470000281700080000002093
:10171000400000006C01000868170008400000202D
:101720006006000088010008323031302D342D333E
:101730003000000000000000000000000000000079
:10174000000102030401020304060708090204065B
:101750000800000000A24A04000000000000000091
:08176000010203040607080959
:0400000508000131BD
:00000001FF
