:020000040800F2
:10000000600400200101000841200008432000088E
:10001000472000084B2000084F2000080000000087
:100020000000000000000000000000005320000855
:100030005520000800000000572000085920000843
:100040001B0100081B0100081B010008112000080B
:100050001B0100081B0100081B0100081B01000810
:100060001B0100081B0100081B0100081B01000800
:100070001B0100081B0100081B0100081B010008F0
:100080001B0100081B0100081B0100081B010008E0
:100090001B0100081B0100081B0100081B010008D0
:1000A0001B0100081B0100081B0100081B010008C0
:1000B0001B0100081B0100081B0100081B010008B0
:1000C0001B0100081B0100081B0100081B010008A0
:1000D0001B0100081B0100081B0100081B01000890
:1000E0001B0100081B0100081B010008DFF80CD0F1
:1000F00002F0F4FB00480047D11F00086004002014
:100100000648804706480047FEE7FEE7FEE7FEE7B1
:10011000FEE7FEE7FEE7FEE7FEE7FEE7D11E00088A
:10012000ED00000831490143314A1160704770B554
:10013000002100230F22C4780CB32D4C246804F452
:10014000E064C4F5E064210AC1F10403CA404478C4
:1001500004FA03F18478144021430901254C067800
:10016000A155047804F01F050124AC4005786D11F9
:100170004FF0E02606EB8505C5F8004109E004785C
:1001800004F01F050124AC401B4D0678761145F89C
:10019000264070BD194A0A400243154B1B1F1A60C6
:1001A000704739B1124A121D12680243104B1B1DD1
:1001B0001A6006E00E4A121D126882430C4B1B1D8A
:1001C0001A607047042808D14FF0E021096941F016
:1001D00004014FF0E022116107E04FF0E0210969CE
:1001E00021F004014FF0E022116170470000FA0590
:1001F0000CED00E000E400E080E100E080FFFF1F84
:1002000010B5012000F00EFC002000F00BFC10BD2A
:100210002A49086070472949091F08607047274923
:1002200084310860704701460020254A10884FF647
:100230007F4210400843224A108070470146002048
:100240001F4A10884FF68072104008431C4A1080E5
:10025000704708B500220092194A2C3A0092009A81
:1002600002440092009A116008BD08B501460020C2
:10027000009013482C380090009808440090009893
:10028000008808BD0D489C300068C0B270470C481B
:100290000830008840F001000949083108807047A3
:1002A0000648A0300068C0B2704705480830008892
:1002B00040F00200024908310880704704860D4270
:1002C0002C6C004010B50446CA48844208D1012174
:1002D000042000F08DFB0021042000F089FB46E0A3
:1002E000C548844208D10121082000F081FB00218B
:1002F000082000F07DFB3AE0C048844208D101218B
:10030000102000F075FB0021102000F071FB2EE0A2
:10031000BB48844208D10121202000F069FB002164
:10032000202000F065FB22E0B648844208D101217C
:10033000402000F05DFB0021402000F059FB16E05A
:10034000B148844208D10121802000F051FB0021F6
:10035000802000F04DFB0AE0AC48844207D1012127
:10036000801500F045FB0021A01500F041FB10BDF9
:1003700010B50121084600F03BFB0021012000F0F0
:1003800037FB10BD2DE9F041024600250026002074
:1003900000230024002791F803C00CF00F0591F80A
:1003A00003C01CF0100F03D091F802C04CEA050501
:1003B00091F800C0BCF1000F31D0146800202BE090
:1003C0004FF0010C0CFA00F3B1F800C00CEA030680
:1003D0009E4220D183004FF00F0C0CFA03F7BC4370
:1003E00005FA03FC4CEA040491F803C0BCF1280FA1
:1003F00006D14FF0010C0CFA00FCC2F814C00AE060
:1004000091F803C0BCF1480F05D14FF0010C0CFA74
:1004100000FCC2F810C0401C0828D1D31460B1F809
:1004200000C0BCF1FF0F34DD546800202EE000F165
:10043000080C4FF0010808FA0CF3B1F800C00CEA00
:1004400003069E4221D183004FF00F0C0CFA03F7F4
:10045000BC4305FA03FC4CEA040491F803C0BCF168
:10046000280F05D100F1080C08FA0CF8C2F8148026
:1004700091F803C0BCF1480F07D100F1080C4FF010
:10048000010808FA0CF8C2F81080401C0828CED3E6
:100490005460BDE8F0814FF6FF7101800221817048
:1004A0000421C17070470246002093680B4201D0BE
:1004B000012000E0002070470146886880B2704744
:1004C00002460020D3680B4201D0012000E000204A
:1004D00070470146C86880B270470161704741614A
:1004E00070470AB1016100E041617047C160704727
:1004F0004FF480320A43826181618261826982693C
:10050000704702460020424B18684FF6807318402F
:1005100040EA021008433E4B186070473D49C861ED
:100520007047F0B50A46002300240021002500F0A2
:100530000046B6F1004F02D1354EF16901E0344E6C
:100540007168C0F3034583B200F44016B6F5401F4E
:1005500008D121F070612E4E766826F070662C4F1F
:100560007E6012E000F48016B6F5801F06D10326E7
:1005700006FA05F4A14341F0706106E0460D36012C
:1005800003FA06F6B14341F0706122B1460D36011F
:1005900003FA06F6314300F00046B6F1004F02D1EF
:1005A0001B4EF16101E01A4E7160F0BD30B50022C2
:1005B0008B071C0F0F2303FA04F2154B08338C1022
:1005C00053F824309343124C08348D1044F82530EE
:1005D00023468C1053F824308C07240F00FA04F4BF
:1005E00023430B4C08348D1044F8253030BD0A49A4
:1005F0000860704700080140000C014000100140F5
:100600000014014000180140001C0140002001407E
:100610000000014000002042DC00204210B5012112
:10062000080700F0F2F900214FF0805000F0EDF9DA
:1006300010BD294908627047274908617047014683
:100640000020264A106820F0E00008431060704740
:1006500023490860704710B5024600201F4B1868F8
:1006600020F00300104318601E4B1B6843F0040386
:100670001C4C2360012901D130BF00E020BF194B81
:100680001B6823F00403174C236010BD1348006857
:1006900040F00400114908600846006840F002007C
:1006A00008601048006840F004000E49086000BF70
:1006B00000BF30BF704701460020084A52680A4216
:1006C00001D0012000E0002070470449096841EA98
:1006D0008001024A1160704700000E420070004025
:1006E000A0000E4210ED00E0DD48006840F001007F
:1006F000DB49086008464068DA490840D849486044
:1007000008460068D8490840D5490860084600688E
:1007100020F4802008600846406820F4FE0048600D
:100720004FF41F0088607047CD49096821F480317B
:10073000CB4A11601146096821F480211160B0F59F
:10074000803F03D0B0F5802F0ED106E0C449096880
:1007500041F48031C24A116007E0C149096841F49F
:10076000A021BF4A116000E000BF00BF704710B574
:1007700001460022002300204A11012A02D1B84C70
:10078000236806E0022A02D1B54C236A01E0B44C8A
:10079000636A01F01F02012494401C4201D0012031
:1007A00000E0002010BD38B5002000900024002596
:1007B00000BF3120FFF7DBFF05460098401C00908A
:1007C0000098B0F5A06F01D0002DF2D03120FFF7D6
:1007D000CEFF08B1012400E00024204638BD0146C8
:1007E00000209F4A106820F0F80040EAC100106025
:1007F00070479E490860704702460020984B586831
:1008000020F47C1042EA01031843954B586070476E
:1008100096490866704701460020914A506820F0CA
:1008200003000843506070478D48406800F00C009A
:100830007047014600208A4A506820F0F0000843C3
:100840005060704701460020854A506820F4E060FF
:1008500008435060704701460020814A506820F4E8
:10086000605040EAC1005060704729B17C4A527A1A
:1008700002437B4B5A7204E0794A527A8243784BA6
:100880005A7270477A490860704701460020744ADE
:10089000506820F440400843506070470021754A7A
:1008A00011706F4A82F82010012802D0042808D164
:1008B00003E001216F4A117004E005216D4A1170B7
:1008C00000E000BF00BF70476B4908607047644993
:1008D000096A0143624A11627047674944390860F6
:1008E000704730B500210022002400235C4D6D6864
:1008F00005F00C0121B1042905D0082923D105E018
:100900005E4D056022E05D4D05601FE0544D6D6851
:1009100005F47012524D6D6805F48034022505EB24
:1009200092421CB9564D554305600BE04C4D6D6825
:1009300015F4003F03D0524D5543056002E04F4D82
:100940005543056002E04D4D056000BF00BF444DBA
:100950006D6805F0F00109094A4D6B5C0568DD40E2
:1009600045603F4D6D6805F4E061090A454D6B5CDB
:100970004568DD4085603A4D6D6805F46051C90AEF
:10098000404D6B5C4568DD40C560354D6D6805F4D4
:100990004041890B3C4D6B5CC568B5FBF3F50561C7
:1009A00030BD29B12E4A526902432D4B5A6104E0F1
:1009B0002B4A526982432A4B5A61704729B1284A0F
:1009C00092690243264B9A6104E0254A9269824368
:1009D000234B9A61704729B1214AD2690243204BC7
:1009E000DA6104E01E4AD26982431D4BDA61704726
:1009F00029B11B4AD2680243194BDA6004E0184A55
:100A0000D2688243164BDA60704729B1144A1269E2
:100A10000243134B1A6104E0114A12698243104BDE
:100A20001A61704714494039086070470F49C8641B
:100A300070470B49C87170470948406A40F08070A0
:100A400007494862704701460020054A92680A42F9
:100A500001D0012000E000207047014988727047F2
:100A6000001002400000FFF8FFFFF6FE00004242C7
:100A7000D8004242201002408004424200127A0014
:100A800000093D00000000201000002029B14F4A5D
:100A9000128802434D4B1A8004E04C4A128882436C
:100AA0004A4B1A8070474948001D008840F01000EA
:100AB0004649091D088070474448001D00884FF6CC
:100AC000EF7108404149091D0880704700213F48E7
:100AD0001C300188001F008841EA0040704700B5C3
:100AE0000246FFF7E0FF100C384918310880091D55
:100AF0000A80FFF7E1FF00BD00B50246FFF7D3FF14
:100B0000C2F30340314908310880091D0A80FFF70C
:100B1000D3FF00BD00B50246FFF7C5FF100C2B49FF
:100B200020310880091D0A80FFF7C6FF00BD0020A4
:100B30002649103109880907080B2449143109880E
:100B40000843704700BF2148001D008810F0200FA7
:100B5000F9D070471D48001D00884FF6F771084016
:100B60001A49091D088000BF1848001D008810F0B0
:100B7000080FF9D0704701460020144A121D128850
:100B80000A4201D0012000E0002070470F49091DF2
:100B9000098881430D4A121D1180704701460020CB
:100BA0000A4A121D12880A40D0B2084A12880A4224
:100BB00002D008B1012000E0002070470349091D60
:100BC00009888143014A121D1180704700280040A6
:100BD00010B50446FE48844208D10121C014FFF735
:100BE00007FF0021E014FFF703FFC4E0B4F1804FDA
:100BF00008D101210846FFF708FF00210120FFF777
:100C000004FFB8E0F348844208D101210220FFF735
:100C1000FCFE00210220FFF7F8FEACE0EE48844223
:100C200008D101210420FFF7F0FE00210420FFF786
:100C3000ECFEA0E0E948844208D101210820FFF73A
:100C4000E4FE00210820FFF7E0FE94E0E44884423F
:100C500008D101211020FFF7D8FE00211020FFF756
:100C6000D4FE88E0DF48844208D101212020FFF72C
:100C7000CCFE00212020FFF7C8FE7CE0DA48844249
:100C800008D101214014FFF7B3FE00216014FFF7E3
:100C9000AFFE70E0D548844209D10121C804FFF7B6
:100CA000A7FE00214FF40020FFF7A2FE63E0D0482A
:100CB000844209D101210805FFF79AFE00214FF473
:100CC0008010FFF795FE56E0CA48844209D1012101
:100CD0004805FFF78DFE00214FF40010FFF788FE56
:100CE00049E0C548844208D101214020FFF78DFE2C
:100CF00000214020FFF789FE3DE0C048844208D132
:100D000001218020FFF781FE00218020FFF77DFE7A
:100D100031E0BB48844208D101218015FFF775FE00
:100D20000021A015FFF771FE25E0B648844209D1E5
:100D300001210804FFF75CFE00214FF48030FFF72B
:100D400057FE18E0B048844209D101214804FFF75A
:100D50004FFE00214FF40030FFF74AFE0BE0AB4896
:100D6000844208D101218804FFF742FE00214FF49C
:100D70008020FFF73DFE10BD00220288944B984270
:100D80000ED0994B98420BD0B0F1804F08D0914BC8
:100D9000984205D0904B984202D0904B984204D193
:100DA0004FF68F731A404B881A438D4B984207D0E9
:100DB0008C4B984204D04FF6FF431A40CB881A431D
:100DC00002808B8883850B880385814B98420BD0EA
:100DD000854B984208D08B4B984205D08A4B98425D
:100DE00002D08A4B984201D10B7A03860123838279
:100DF000704770B5002400220023058C4FF6FE7664
:100E000035400584028C8388048B4FF68F752C4007
:100E1000B51E2C400D882C43751E2A400D892A438F
:100E20004D882A436A4DA8420BD06F4DA84208D086
:100E3000744DA84205D0744DA84202D0734DA8420B
:100E400013D14FF6F7752A404D892A434FF6FB75AB
:100E50002A408D882A434FF6FF652B404FF6FF55F9
:100E60002B408D892B43CD892B4383800483CD88F0
:100E70008586028470BD70B5002400220023058C95
:100E80004FF6EF7635400584028C8388048B48F654
:100E9000FF752C404FF6FF452C400D884FF6FF762E
:100EA00006EA05252C434FF6DF752A400D8906EA30
:100EB00005152A434D8806EA05152A43444DA842E4
:100EC00002D0494DA8421DD14FF67F752A404D8969
:100ED0004FF6FF7606EA05152A434FF6BF752A40FE
:100EE0008D8806EA05152A434FF6FF352B404FF251
:100EF000FF752B408D8906EA85052B43CD8906EACF
:100F000085052B4383800483CD880587028470BDCB
:100F100070B5002400220023058C4FF6FF66354093
:100F20000584028C8388848B4FF68F752C404FF696
:100F3000FC752C400D882C434FF6FF552A400D8937
:100F40004FF6FF7606EA05252A434D8806EA052571
:100F50002A431F4DA84202D0234DA8421DD14FF273
:100F6000FF752A404D894FF6FF7606EA05252A438C
:100F70004FF6FF352A408D8806EA05252A434EF6AE
:100F8000FF752B404DF6FF752B408D8906EA051540
:100F90002B43CD8906EA05152B4383808483CD88B6
:100FA0008587028470BD70B5002200230024058C63
:100FB0004EF6FF7635400584038C8488828B48F694
:100FC000FF752A404FF6FF452A400D8820E00000BB
:100FD000002C01400004004000080040000C0040CC
:100FE000001000400014004000340140004C01405B
:100FF000005001400054014000180040001C004017
:1010000000200040004001400044014000480140F1
:101010004FF6FF7606EA05252A434DF6FF752B406D
:101020000D8906EA05352B434D8806EA05352B4325
:10103000FA4DA84202D0FA4DA84208D14BF6FF75EE
:101040002C408D894FF6FF7606EA85152C43848067
:101050008283CD88A0F84050038470BD828B4FF20C
:10106000FF331A408283828B4FF6FF7303EA01231A
:101070001A4382837047F0B50C46154600220021C2
:101080000026078C4EF6FF7C07EA0C070784828B4C
:10109000018C4FF6FF7707EA043640F6FF473A40E7
:1010A0004FF6FF7707EA05273A434FF6FF7707EA3F
:1010B00003373A43D94FB8420ED0D94FB8420BD07C
:1010C000B0F1804F08D0D74FB84205D0D64FB842C4
:1010D00002D0D64FB84206D14DF6FF77394046F4DC
:1010E0008057394305E047F6FF57394044F48057AD
:1010F000394382830184F0BD828B4FF6F3731A402B
:101100008283828B0A4382837047F0B50C46154672
:10111000002200210026078C4FF6FF6C07EA0C071F
:101120000784828B018C4FF6FF7707EA04264FF67F
:101130000C773A404FF6FF7707EA03172F433A43FD
:10114000B64FB8420ED0B64FB8420BD0B0F1804F78
:1011500008D0B44FB84205D0B34FB84202D0B34F15
:10116000B84206D14FF6FF57394046F480773943ED
:1011700005E04FF2FF57394044F4807739438283CA
:101180000184F0BD028B4FF2FF331A400283028BC1
:101190004FF6FF7303EA01231A4302837047F0B549
:1011A0000C461546002200210026078C4FF6EF7CE6
:1011B00007EA0C070784028B018C4FF6FF7707EADA
:1011C000041640F6FF473A404FF6FF7707EA033729
:1011D0003A434FF6FF7707EA05273A438F4FB84265
:1011E0000ED08F4FB8420BD0B0F1804F08D08D4F4A
:1011F000B84205D08C4FB84202D08C4FB84206D1CD
:101200004FF6DF77394046F01007394305E04FF6D7
:101210005F77394044F01007394302830184F0BD01
:10122000028B4FF6F3731A400283028B0A43028348
:101230007047F0B50C46154600220021068C4FF68B
:10124000FE773E400684028B018C4FF60C763240CE
:101250007E1C06EA03162E433243704EB0420ED077
:101260006F4EB0420BD0B0F1804F08D06D4EB042FF
:1012700005D06D4EB04202D06C4EB04206D14FF652
:10128000FD76314044F00106314305E04FF6F57636
:10129000314044F00106314302830184F0BD70B552
:1012A00005460C465D4885420ED05D4885420BD010
:1012B000B5F1804F08D05B48854205D05A48854239
:1012C00002D05A48854200D100E000BF208850B9C2
:1012D0002389A28861882846FFF7ABFFE18828466A
:1012E000FFF79EFF25E0208804280AD12389A288E1
:1012F00061882846FFF753FFE1882846FFF742FF41
:1013000017E0208808280AD12389A2886188284606
:10131000FFF7FBFEE1882846FFF7EEFE09E0238990
:10132000A28861882846FFF7A6FEE1882846FFF7D5
:1013300095FE70BD2DE9F04105460C4600260127BB
:10134000608808B9022600E00026A088012801D1A3
:10135000022700E001272088A0B92389A28861889C
:101360002846FFF766FFE1882846FFF759FF2389E3
:101370003A4631462846FFF712FFE1882846FFF734
:1013800001FF13E02389A28861882846FFF707FF41
:10139000E1882846FFF7F6FE23893A46314628467B
:1013A000FFF747FFE1882846FFF73AFFBDE8F081E5
:1013B0000A884B881A438B881A43CB881A430B89B7
:1013C0001A434B891A438B891A43A0F8442070476B
:1013D0004FF6FF71818000210180C1804180017240
:1013E00070470021018041808180C180018141815D
:1013F0008181C1817047002101804180012181806C
:101400000021C180018170470021018041808180DD
:10141000C18001814181818170470000002C014021
:10142000003401400004004000080040000C00406F
:1014300021B1028842F00102028004E002884FF6E6
:10144000FE731A400280704731B1B0F8442042F474
:101450000042A0F8442005E0B0F84420C2F30E0298
:10146000A0F8442070471AB183890B43838102E0BE
:1014700083898B43838170478182704741EA0203ED
:10148000A0F8483070471AB183890B43838102E08A
:1014900083898B438381704701894FF6F87211402D
:1014A000018170470A46002101894FF68F73194068
:1014B00011430181704730B504460D462946204648
:1014C000FFF7F0FF208940F00700208130BD2DE9B3
:1014D000F04104460D4616461F46602D06D13B4698
:1014E000012231462046FFF75AFE05E03B46012225
:1014F00031462046FFF79DFE29462046FFF7D2FFE2
:10150000208940F007002081BDE8F08130B50C460D
:1015100000210189C9B24FF6FF7505EA032515437D
:1015200025432943018130BD2DE9F04105460E4692
:1015300017469846002443463A4631462846FFF768
:10154000E5FF2C894FF6F870044044F007044FF68D
:101550008F70044044F070042C81BDE8F081F0B538
:1015600004460D4616461F463B463246294620464F
:10157000FFF7CCFF208940F480402081F0BD018539
:10158000828270470A46002101884FF68F73194006
:10159000114301807047F0B50C4615461E460021E8
:1015A000002200230189028B038C4FF6F877394023
:1015B00021434FF6FC473A4040F201173A434FF6B9
:1015C000DD773B404FF6FF7707EA06172F433B4393
:1015D000018102830384F0BD0A460021018B4FF68E
:1015E0008F7319401143018370470A460021018B14
:1015F00048F6FF7319404FF6FF7303EA02231943BD
:10160000018370470A460021818B4FF68F73194082
:101610001143818370470A460021818B48F6FF738E
:1016200019404FF6FF7303EA022319438183704781
:1016300021B1028842F08002028004E002884FF665
:101640007F731A400280704721B1828842F0040201
:10165000828004E082884FF6FB731A4082807047D4
:1016600021B1828842F00802828004E082884FF62D
:10167000F7731A408280704721B1828842F00102DC
:10168000828004E082884FF6FE731A4082807047A1
:101690000A460021018B4FF6F7731940114301836D
:1016A00070470A460021018B4FF2FF7319404FF635
:1016B000FF7303EA02231943018370470A4600219E
:1016C000818B4FF6F77319401143818370470A46A7
:1016D0000021818B4FF2FF7319404FF6FF7303EA2D
:1016E00002231943818370470A460021018B4FF67C
:1016F000FB7319401143018370470A460021018B97
:101700004FF6FF3319404FF6FF7303EA02231943E4
:10171000018370470A460021818B4FF6FB73194005
:101720001143818370470A460021818B4FF6FF33B6
:1017300019404FF6FF7303EA022319438183704770
:101740000A460021018B4FF67F7319401143018334
:1017500070470A460021018BC1F30E014FF6FF735B
:1017600003EA02231943018370470A460021818B53
:101770004FF67F7319401143818370470A46002159
:10178000818BC1F30E014FF6FF7303EA0223194365
:10179000818370470A460021018C4FF6FD73194082
:1017A0001143018470470A460021018C4FF6F773FC
:1017B00019401143018470470A460021018C4FF6FD
:1017C000DF7319404FF6FF7303EA021319430184D4
:1017D00070470A460021018C4FF67F7319404FF67F
:1017E000FF7303EA02131943018470470A4600217C
:1017F000018C4FF6FF5319404FF6FF7303EA0223A3
:101800001943018470470A460021018C4FF2FF738F
:1018100019404FF6FF7303EA02231943018470470E
:101820000A460021018C4DF6FF7319404FF6FF73F5
:1018300003EA023319430184704730B500230124C1
:101840008C40A3B2048C9C430484048C02FA01F5FE
:10185000ADB22C43048430BD30B5002304248C4049
:10186000A3B2048C9C430484048C02FA01F5ADB24B
:101870002C43048430BD70B5034600200024184674
:10188000183001258D40ACB21D8CA5431D8409B1D3
:10189000082909D100EB6100056825F07005056095
:1018A0000568154305600EE00D1FC5F34E0528447D
:1018B000056825F4E045056005684FF6FF7606EA01
:1018C00002263543056070BD21B1028842F0020254
:1018D000028004E002884FF6FD731A4002807047D0
:1018E00021B1028842F00402028004E002884FF62F
:1018F000FB731A400280704721B1828842F0800257
:10190000828004E082884FF67F731A40828070479D
:1019100002884FF6F7731A40028002880A43028059
:10192000704782884FF68F731A40828082880A43FC
:101930008280704702894FF6F8731A40028102894B
:101940000A430281704702894FF67F731A40028171
:1019500002890A43028170478184704781857047FC
:10196000818670470187704781877047A0F84010D3
:10197000704702884FF6FF431A40028002880A43EC
:10198000028070470146888E70470146088F704775
:101990000146888F70470146B1F840007047014604
:1019A000888C70470146088D704702460020138AD4
:1019B0000B4201D0012000E000207047CA430282A0
:1019C000704730B50246002000230024158A05EA3E
:1019D0000103958905EA010413B10CB1012000E06F
:1019E000002030BDCA4302827047000010B5044693
:1019F000FB48844209D101218803FEF7F9FF002149
:101A00004FF48040FEF7F4FF32E0F648844209D1FB
:101A100001214804FEF7F9FF00214FF40030FEF7E2
:101A2000F4FF25E0F048844209D101218804FEF743
:101A3000ECFF00214FF48020FEF7E7FF18E0EB48B1
:101A4000844209D10121C804FEF7DFFF00214FF4D1
:101A50000020FEF7DAFF0BE0E548844208D10121BF
:101A60000805FEF7D2FF00214FF48010FEF7CDFFEE
:101A700010BD2DE9F04786B005460E460024A2466B
:101A800000BFA1460027B08900B100BF2F462C8AB5
:101A90004CF6FF700440F08804432C82AC894EF66B
:101AA000F3100440B0883189084371890843044326
:101AB000AC81AC8A4FF6FF400440B0890443AC824D
:101AC00001A8FEF70EFFC648874202D1DDF810A03C
:101AD00001E0DDF80CA0A88910F4004F08D00AEB53
:101AE000CA0000EB0A1031684900B0FBF1F807E0CA
:101AF0000AEBCA0000EB0A1031688900B0FBF1F86C
:101B00006420B8FBF0F004012009642101FB108976
:101B1000A88910F4004F08D0322000EBC900B0FBB8
:101B2000F1F000F00700044308E0322000EB091058
:101B30006421B0FBF1F000F00F0004432C8106B0EB
:101B4000BDE8F0874FF41651016000218180C1800B
:101B500001810C21418100218181704710B502462D
:101B60000020108A4FF2FF0318400B884C88234353
:101B70008C882343CC8823431843108210BD002156
:101B8000018041808180C180704721B1828942F407
:101B90000052828104E082894DF6FF731A408281EF
:101BA0007047F0B503460024002600250020A1F56B
:101BB00010676A3F00D100BF1846C1F3421401F01C
:101BC0001F06012707FA06F5012C01D10C3004E0AD
:101BD000022C01D1103000E014301AB107682F43F5
:101BE000076002E00768AF430760F0BD1AB1838A5F
:101BF0000B43838202E0838A8B4383827047028A8D
:101C00004FF6F0731A400282028A0A43028270473A
:101C100082894FF2FF731A40828182890A4382814E
:101C2000704721B1828942F00202828104E08289F8
:101C30004FF6FD731A4082817047028A4FF6DF73B8
:101C40001A400282028A0A430282704721B1028A44
:101C500042F48042028204E0028A4BF6FF731A408B
:101C600002827047C1F3080282807047014688886B
:101C7000C0F308007047818941F0010181817047FC
:101C8000028BD2B20283028B42EA012202837047A6
:101C9000028B02F47F420283028B0A430283704765
:101CA00021B1828A42F02002828204E0828A4FF6C9
:101CB000DF731A408282704721B1828A42F010029B
:101CC000828204E0828A4FF6EF731A408282704764
:101CD00021B1828A42F00802828204E0828A4FF6B1
:101CE000F7731A408282704721B1828942F4004220
:101CF000828103E08289C2F30E028281704721B1A2
:101D0000828A42F40062828204E0828A4FF2FF7388
:101D10001A4082827047828A4FF6FB731A40828291
:101D2000828A0A438282704721B1828A42F002028B
:101D3000828204E0828A4FF6FD731A4082827047E5
:101D400002460020B1F5007F00D100BF13880B428E
:101D500001D0012000E00020704701F40072B2F5CC
:101D6000007F00D100BFCA430280704770B50246B1
:101D70000024002300250020A1F510666A3E00D152
:101D800000BFC1F3421501F01F03012606FA03F359
:101D9000012D02D19689334006E0022D02D1168A28
:101DA000334001E0968A33400C12012606FA04F40F
:101DB0001688344013B10CB1012000E0002070BD42
:101DC00010B500220023A1F510646A3C00D100BFC9
:101DD0000A1201249440A3B2DC43048010BD000029
:101DE000003801400044004000480040004C0040E2
:101DF000005000400CB50020019000906B48006836
:101E000040F480306949086000BF6848006800F409
:101E1000003000900198401C0190009818B901987A
:101E2000B0F5A06FF1D16148006810F4003F02D016
:101E30000120009001E0002000900098012842D18C
:101E40005B48006840F01000594908600846006887
:101E500020F0030008600846006840F002000860B7
:101E60005248406851494860084640684860084602
:101E7000406840F4806048600846406820F47C1068
:101E800048600846406840F4E8104860084600682A
:101E900040F08070086000BF4448006810F0007F88
:101EA000FAD04248406820F00300404948600846A4
:101EB000406840F00200486000BF3C48406800F0C5
:101EC0000C000828F9D10CBD10B5FFF793FF10BD29
:101ED00010B53648006840F00100344908600846F3
:101EE0004068344908403149486008460068324932
:101EF00008402E4908600846006820F480200860E9
:101F00000846406820F4FE0048604FF41F008860D7
:101F1000FFF7DAFF4FF000602849086010BD10B5E8
:101F2000002100200022214B5B6803F00C0121B14D
:101F3000042906D0082928D107E0214B214C236031
:101F400027E01F4B1F4C236023E0184B5B6803F412
:101F50007010164B5B6803F48032022303EB904051
:101F600022B9194B4343174C23600DE00F4B5B68BC
:101F700013F4003F04D0144B4343124C236003E09E
:101F80000F4B43430F4C236003E00D4B0D4C23607C
:101F900000BF00BF054B5B68C3F303130B4CE15C50
:101FA000084B1B68CB40074C236010BD001002405B
:101FB000002002400000FFF8FFFFF6FE08ED00E001
:101FC00000127A001400002000093D0018000020D3
:101FD000FFF77EFF00F00CFB0B4800F091FC0121A5
:101FE0000920FEF7EBFC01210848FEF79AFA00F001
:101FF0006BF800F07DF800F020FA03E000F038F80C
:1020000000F0D7F8FAE700008C2C0008000230003E
:1020100010B50120FEF7C2FD88B10120FEF7CEFD0C
:102020000E4800880A2805D100F03EFA00200B492E
:10203000088004E009480088401C0849088010BD59
:10204000704700BFFEE700BFFEE700BFFEE700BF2E
:10205000FEE7704770477047704700002800002077
:1020600001B500BF0098411E00910028FAD108BDBB
:1020700010B501216248FEF716FA10B90420614933
:10208000086002215E48FEF70EFA10B905205D498E
:10209000086008215A48FEF706FA10B90620594987
:1020A00008604FF480715648FEF7FDF910B907201B
:1020B000544908604FF400715148FEF7F4F910B923
:1020C00008205049086010BD08B501210820FEF71E
:1020D00075FC40F20B30ADF8000048208DF803008D
:1020E00001208DF8020069464548FEF74BF908BD0E
:1020F00000B589B001210846FEF76DFC01210420DE
:10210000FEF75CFC0E20ADF8200018208DF82300AF
:1021100003208DF8220008A93B48FEF733F9702010
:10212000ADF8200010208DF8230003208DF8220048
:1021300008A93548FEF726F910213348FEF7CFF9F4
:1021400020213148FEF7CBF940212F48FEF7C7F98F
:1021500040F2CF20ADF814006320ADF81800002045
:10216000ADF81A00ADF8160005A94FF08040FEF753
:1021700003FE01A8FFF735F96020ADF80400012047
:10218000ADF806001920ADF80A000020ADF80C00EB
:1021900001A94FF08040FEF76EFE01A94FF080408C
:1021A000FEF7B6FE01A94FF08040FEF7FCFE09B035
:1021B00000BD10B513480068042804D1102112484E
:1021C000FEF78DF91AE00F480068072804D11021A6
:1021D0000D48FEF782F911E00A480068052804D18D
:1021E00001218007FFF724F908E006480068062867
:1021F00004D100214FF08040FFF71AF910BD000014
:10220000000C01402C0000200008014073B5054679
:1022100001A800F01DFB0446606900F26C7060616B
:102220002C222146284600F0D9FA7CBD0FB410B507
:102230000798A0F26C70079002A800F07FFA10BC1B
:102240005DF814FB10B5FEF741FC10BD30B58BB046
:102250000446FEF73BFC054629466846FFF7D6FFD5
:102260002C226946204600F0B9FA0BB030BD10B5FB
:102270000446FEF767FC2046FEF731FCFEF762FCE1
:1022800010BD0FB410B588B01C220EA9684600F02E
:10229000A5FA0AA80FC8FFF7C9FF0446FFF7E7FF32
:1022A00008B010BC5DF814FB08B54FF4C060FDF732
:1022B00039FF03208DF8000001208DF80100002077
:1022C0008DF8020001208DF803006846FDF72FFF0E
:1022D00008BD10B501214FF0C050FEF77CFB012076
:1022E000FEF7A7F9FDF78CFF0120FEF7D7FA00BF34
:1022F0004120FEF73CFA0028FAD04FF48070FEF738
:10230000E6FA0120FEF7E9FAFEF724FCFEF71AFCD4
:1023100001210846FEF7BAFBFEF714FC47F6FF70F2
:10232000FEF7EAFBFEF70EFC10BD2DE9FF41054666
:102330000E46174600240020009001900290039062
:1023400026E000BF20216248FFF7FAFC0028F9D000
:102350005F48FFF78BFC2146621C94B24DF82100C8
:10236000601E5DF820000D2802D1601E84B20FE0CF
:10237000601E5DF82000302804D3601E5DF8200048
:10238000392804D953A000F0BBFA601E84B200BF04
:10239000BC42D6DB022F09D1019830380099303980
:1023A00001EB810100EB410084B218E00398303862
:1023B0000299303901EB810100EB4101019830387D
:1023C00000EBC00202EB001001EB800100983038F6
:1023D00000EB4002C2EBC01001EBC00084B2B4427B
:1023E00001D8AC4208D23246294645A000F088FA0E
:1023F000002004B0BDE8F0812046FAE700B593B0B4
:102400002C2108A800F003FA494800F079FA40F2BC
:10241000DC700D9000200C9001200B9000200A90A1
:10242000099008901C220CA9684600F0D7F908A86A
:102430000FC8FFF726FF13B000BD10B50420FDF74D
:1024400014FFA0F52541A5390FD03AA000F058FAA5
:10245000FFF73FFFFFF7D2FF3EA000F051FA4AF22C
:10246000A5510420FDF7F5FE19E07B20FEF77FF96A
:1024700018B13EA000F044FA06E07A20FEF777F9A2
:1024800010B142A000F03CFA48A000F039FAFEF783
:1024900061FB01210846FEF7F9FAFEF753FBFFF74F
:1024A00003FFFEF7C9FA10BD00B58FB004A8FFF70F
:1024B000CDFEDDE905210498CDE900120290DDE9A9
:1024C0000730421C41A0099900F01AFA0FB000BD74
:1024D00000380140506C6561736520656E746572EB
:1024E0002076616C6964206E756D6265722062652C
:1024F000747765656E203020616E6420390D0A00A6
:10250000506C6561736520656E7465722076616CD0
:102510006964206E756D62657220626574776565A9
:102520006E20256420616E642025640D0A00000081
:10253000D42C0008525443206E6F742079657420A7
:10254000636F6E666967757265642E2E2E2E0D0A96
:102550000000000052544320636F6E666967757215
:1025600065642E2E2E2E0D0A00000000506F776538
:1025700072204F6E205265736574206F63637572AD
:102580007265642E2E2E2E0D0A00000045787465AB
:10259000726E616C205265736574206F636375722F
:1025A0007265642E2E2E2E0D0A0000004E6F206ED6
:1025B00065656420746F20636F6E66696775726508
:1025C000205254432E2E2E2E0D0A000054696D65A4
:1025D0003A2025642D25642D2564202020253032C5
:1025E000643A253032643A25303264200D0A000006
:1025F00000B585B0012144F20400FEF7DFF94FF485
:102600000070ADF8100018208DF8130003208DF82D
:10261000120004A94648FDF7B5FE4FF48060ADF8FE
:10262000100004208DF8130003208DF8120004A977
:102630003F48FDF7A7FE4FF4E13000900020ADF8D1
:102640000400ADF80600ADF80800ADF80C000C2051
:10265000ADF80A0069463748FFF70BFA40213548C4
:10266000FFF77BFB012240F225513248FFF799FA30
:10267000012240F227712F48FFF793FA01212D48DC
:10268000FFF783FA05B000BD08B518208DF80300E8
:1026900041F20400ADF8000003208DF80200694605
:1026A0002348FDF76FFE04208DF8030040F6080074
:1026B000ADF8000069461E48FDF764FE08BD1FB571
:1026C00001210520FEF77AF901214804FEF783F97C
:1026D0004FF4E13000900020ADF80600ADF80400A2
:1026E000ADF808004FF44070ADF80C000C20ADF8C8
:1026F0000A0069461048FFF7BCF901210E48FFF7B0
:1027000044FAFFF7C1FF1FBD014600BF704770B517
:1027100004460D46E1B20748FFF7A4FA00BF402186
:102720000448FFF70DFB0028F9D0204670BD0000DB
:1027300000080140003801400044004038B5D0E9AD
:102740000221491E01EB410102EBC1014268C1EBCC
:10275000011102EB81010268C1EB011102EB81035F
:10276000D0E9042101EB410102EB8101A1F5527195
:10277000302491FBF4F2154D04FB1211554303EB89
:10278000C51300931A2902DB114A1A4400920C2344
:1027900091FBF3F20F4C009D544303FB121105EB28
:1027A000C4140D4B009408E0491E40F2A3245A5C67
:1027B0006243009C04EBC21200920029F4DC014643
:1027C000684600F04BF8009838BD00003F0C0F0041
:1027D0008051010067C20300152D000840EA010383
:1027E0009B0703D009E008C9121F08C0042AFAD2C7
:1027F00003E011F8013B00F8013B521EF9D270478B
:10280000D2B201E000F8012B491EFBD27047002232
:10281000F6E710B513460A4604461946FFF7F0FFDF
:10282000204610BD30B50B46014600202022012471
:1028300009E021FA02F59D4205D303FA02F5491B8E
:1028400004FA02F52844151EA2F10102F1DC30BDA4
:10285000014900F003B800003400002030B50368DF
:102860003C22B3FBF2F002FB10330B60B0FBF2F33F
:1028700002FB130018244860B3FBF4F004FB103291
:102880008A60021D0723B2FBF3F403FB14228A6162
:10289000820002F66C3240F2B555B2FBF5F404F159
:1028A00044000346486105FB14208008C8613B28AA
:1028B00002D39A0700D0401C0022074C13460A613D
:1028C000E25C824203D8801A5B1C0B61F8E7401C73
:1028D000C860084630BD0000212D0008064C074D99
:1028E00006E0E06840F0010394E8070098471034E0
:1028F000AC42F6D3FDF7FEFB302D0008502D00084A
:102900000FB4054B10B503A9044A029800F018F85B
:1029100010BC5DF814FB00000F27000830000020F9
:1029200002E008C8121F08C1002AFAD17047704798
:10293000002001E001C1121F002AFBD170470000F6
:102940002DE9FF4F8BB088460546002667E1252814
:102950007AD100246D1CB649A146A24601222B78EB
:10296000203B02FA03F0084202D004436D1CF6E754
:1029700028782A2810D06FF02F022878A0F1300193
:10298000092915D809EB890102EB410144F0020441
:1029900000EB01096D1CF0E758F8049BB9F1000F3A
:1029A00003DA44F40054C9F1000944F002046D1C38
:1029B00028782E2817D115F8010F44F004042A288E
:1029C0000ED06FF02F022878A0F1300109290AD823
:1029D0000AEB8A0102EB410100EB010A6D1CF2E7F0
:1029E00058F804AB6D1C28786C280FD006DC4C28F6
:1029F00017D068280DD06A2814D104E0742810D0AC
:102A00007A280FD10DE044F400140AE044F4801455
:102A100001E044F440146978814202D16D1C04F550
:102A200080146D1C2878692866D007DC002876D0D1
:102A3000632828D0642807D15EE005E06E2808D01E
:102A400073282AD075287AD0DDE90D129047761CBC
:102A5000E4E0C4F30250022809D003280DD0D8F8CE
:102A6000001004280DD00E6008F10408D6E0D8F854
:102A70000010F217C1E90062F6E7D8F800100E80E6
:102A8000F2E70E70F0E718F8041B8DF80010002034
:102A90008DF80100EB46012003E058F804BB4FF02D
:102AA000FF3061074FF0000701D40AE07F1C574553
:102AB0000DDA8742FADB1BF807100029F6D106E091
:102AC0007F1C8742FCDB1BF807100029F8D1DDE9E9
:102AD0000D23A9EB07008146214600F0BEF83044E3
:102AE000C61904E0DDE90D121BF8010B90477F1EAB
:102AF000F8D2214648468CE058F8040BC4F3025142
:102B00004FF00A0B032900D100B2042900D140B2D2
:102B1000002806DAC0F100004FF02D0104E082E049
:102B20000DE0210504D52B218DF82410012103E0AF
:102B3000E10710D02021F7E708AF089114E058F81A
:102B4000040BC4F302514FF00A0B032900D180B2E9
:102B5000042900D1C0B20021EEE75946FFF762FE1A
:102B600001F1300107F8011D0028F6D1ADEB070097
:102B700000F1200B600702D524F4803401E04FF00F
:102B8000010ADA4502DDAAEB0B0000E000208246D4
:102B900000EB0B0108980144A9EB01000A90E00347
:102BA00006D4DDE90D2321460A9800F056F80644C4
:102BB000002008E009A911F80900DDE90D1290478D
:102BC000761C09F10100089981468842F2DBE00396
:102BD0000CD5DDE90D2321460A9800F03EF80644A5
:102BE00004E0DDE90D1230209047761CBAF10001B7
:102BF000AAF1010AF5DC05E0DDE90D1217F8010B79
:102C00009047761CBBF10001ABF1010BF4DC0A9894
:102C10002146DDE90D2300F00DF806446D1C2878EF
:102C200000287FF494AE0FB03046BDE8F08F00006E
:102C3000092801002DE9F041044600251E461746EB
:102C4000880405D406E039462020B04705F1010587
:102C5000641EF8D52846BDE8F0812DE9F041044610
:102C600000251E469046C80301D5302700E02027E6
:102C7000880405D506E041463846B04705F1010510
:102C8000641EF8D52846BDE8F08100000D0A2A2A06
:102C90002A2A2A2A2A2A2A2A2A2A2A2A2A2A2A2A94
:102CA0002A2A2A2A2A2A2A2A2A2A2A2A2A2A2A2A84
:102CB0002A2A2A2A2A2A2A2A2A2A2A2A2A2A2A2A74
:102CC0002A2A2A2A2A2A2A2A2A2A2A2A2A2A0D0AA1
:102CD000000000003D3D3D3D3D3D3D3D3D3D3D3D18
:102CE0003D3D3D3D3D3D3D3D3D3D3D54696D652096
:102CF00053657474696E67733D3D3D3D3D3D3D3D9B
:102D00003D3D3D3D3D3D3D3D3D3D3D3D3D3D3D3DF3
:102D10003D3D0D0A001F1C1F1E1F1E1F1F1E1F1ED4
:102D20001F1F1D1F1E1F1E1F1F1E1F1E1F00000016
:102D3000502D000800000020340000002029000869
:102D4000842D0008340000202C04000030290008E5
:102D50000000000001020304010203040607080941
:102D60000204060800A24A0400000000000000005F
:102D7000010203040607080900000000000000002B
:042D8000000000004F
:0400000508000101ED
:00000001FF
