:020000040800F2
:100000000004002073390008B1210008B321000862
:10001000B7210008BB210008BF2100080000000034
:10002000000000000000000000000000C3210008E4
:10003000C521000800000000C7210008C9210008F0
:100040009339000893390008933900089339000860
:10005000933900089339000893200008CB2000084A
:10006000032100083B210008933900089339000858
:100070009339000893390008933900089339000830
:100080009339000893390008933900089339000820
:100090009339000893390008933900089339000810
:1000A0009339000893390008933900089339000800
:1000B000E50F0008FB130008131800089339000827
:1000C00093390008933900089339000893390008E0
:1000D00093390008933900089339000893390008D0
:1000E00093390008933900089339000893390008C0
:1000F00093390008933900089339000893390008B0
:100100009339000893390008531C000893390008FC
:10011000933900089339000893390008933900088F
:10012000933900089339000893390008933900087F
:10013000DFF80CD003F07CFE00480047750A000889
:1001400090040020F7490968F74A32F8102011435B
:10015000F44A11607047F3490968F34A32F81020F5
:100160009143F04A1160704710B5024600214FF0EC
:10017000804300BFC818904203D8C818121A01243F
:1001800000E00024490804B1194498080300F1D1A3
:10019000914201D2481C10BD0846FCE72DE9F04F02
:1001A0008BB004460D4616461F46DDF850A00020D1
:1001B0000A90002D39DA621EDC4B33F81210DC4B4A
:1001C00053F8220002F0B7FB78B1601ED949085CF1
:1001D00020B90021601ED84A115413E00121601E8D
:1001E000D54A11540BB0BDE8F08F601ED149085CB0
:1001F00020B90121601ED04A1154F3E70021601E8E
:10020000CD4A11540121601E00EB4000CB4A02EBA5
:10021000C0004170621ECA4B33F81210C94B53F82C
:10022000220002F0A4FB6D4235E0621EC64B33F89B
:100230001210C64B53F8220002F07DFB68B1601E1D
:10024000C349085C20B90021601EC24A115411E064
:100250000121601EBF4A1154C4E7601EBC49085CFE
:1002600020B90121601EBB4A1154BBE70021601E6A
:10027000B84A11540021601E00EB4000AF4A02EB67
:10028000C0004170621EAE4B33F81210AD4B53F8F4
:10029000220002F06AFB012D5ED1A91E601E00EB58
:1002A0004000A64A02EBC00041610221601E00EB43
:1002B000400002F830104FF47A71601E00EB4000ED
:1002C00002EBC0004160012C06D0022C09D0032CA7
:1002D0000ED0042C1AD112E00A20410788868885A6
:1002E00014E00A209C4908809B49083908800DE0E9
:1002F0000A209A49088099490839088006E00A20AE
:100300009749088096490839088000BF00BF01213D
:10031000601E944A1154012C06D0022C09D0032CE3
:100320000DD0042C17D110E00121880703F03EF80E
:1003300011E001218848343803F038F80BE001213E
:100340008648343803F032F805E001218448343817
:1003500003F02CF800BF3EE1002DFCD08248B0FB3A
:10036000FAF04108601E00EB4000744A02EBC00046
:1003700001617E48B0FBF6F00190FFF7F5FE834681
:1003800003F071FC00227A4BCDE9020103F07EFB01
:100390000022784BCDE9040103F0E8FB00224FF086
:1003A0008043CDE9060103F0E1FBCDE9080103F04C
:1003B0007BFC611E01EB4101604A02EBC101486018
:1003C0000AFB0AF07100B0FBF1F9B9F1000F01D19D
:1003D0004FF00109F019A84217D9F01903F03EFCBB
:1003E0008346384603F03AFC5946099003F00EFB69
:1003F0000A90284603F029FC09900A9903F0D0FAE4
:10040000834603F03DFC804604E0F019B5FBF0F0B4
:1004100000FB07F8B8F1000F01D14FF00108C84503
:1004200009D8A8EB0501601E00EB4000434A02EB2F
:10043000C000C1600BE009FB06F0B0FBF7F04142E1
:10044000601E00EB40003D4A02EBC000C160601E30
:1004500000EB4000394901EBC000C06840B94FF0E3
:10046000FF31601E00EB4000344A02EBC000C16067
:10047000601E00EB4000314901EBC000C06841192B
:10048000601E00EB40002D4A02EBC0008160601E40
:1004900000EB4000114601EBC0004168601E00EB1C
:1004A000400002EBC0000069814213DC601E00EBDB
:1004B0004000114601EBC0000169601E00EB4000E6
:1004C00002EBC00041600321601E00EB400002F817
:1004D000301006E00121601E00EB4000174A02F8D0
:1004E00030100021601E00EB4000144A02EBC000F7
:1004F00041610121601E1B4A1154012C06D0022CBF
:1005000009D0032C38D0042C44D13CE00A20410708
:10051000888688853EE00A200F4908800E49083900
:10052000088037E000040140A0000020980000206F
:10053000C0000020550000202801002010020020EB
:1005400088000020E000002090000020B000002083
:1005500051000020240100203404004034080040F1
:10056000340C00409401002040420F0080841E00A3
:1005700040A1244100408F400A20FE490880FD49E7
:100580000839088006E00A20FB490880FA49083942
:10059000088000BF00BF012C06D0022C09D0032C1C
:1005A0000CD0042C16D10FE00121880702F0FEFECA
:1005B00010E00121F14802F0F9FE0BE00121ED48C5
:1005C000343802F0F3FE05E00121EB48343802F044
:1005D000EDFE00BF00BF00BF04E638B50446601E54
:1005E000C4B2E748005D072805D2DFE800F0040543
:1005F000333472A0A100A5E0E248005D28BBE248C8
:10060000005D18B30320DE4908550020DE49085577
:10061000DE4850F824000090DD4850F82400DD4DFD
:1006200055F82450401BDC4D55F824502844DB4D30
:1006300055F8245068434142D94850F82430D948ED
:1006400050F82420601CFFF7A9FD02E00020CC49EF
:10065000085577E076E0CB48005DC8BB34B1012C8B
:100660000BD0022C10D0032C1CD114E0CE48006813
:1006700040F00100CC49086014E0CB48006840F02D
:100680000200C94908600DE0C748006840F0040056
:10069000C549086006E0C448006840F00800C24947
:1006A000086000BF00BFC14850F824000090BC485B
:1006B00050F82430BB4850F82420B84850F82400A3
:1006C000C0EBC071601CFFF769FD0420AC49085500
:1006D00038E0AC48005D28BBAB48005D18B306208D
:1006E000A74908550020A8490855A84850F82400F3
:1006F0000090A74850F82400A64D55F82450401B00
:10070000AB4D55F824502844A44D55F82450684367
:100710004142A34850F82430A24850F82420601CDD
:10072000FFF73CFD02E00020954908550AE009E08A
:100730009448005D28B9002091490855944941F832
:10074000240000BF00BF38BD10B50446621E994B9F
:1007500033F81210984B53F8220002F0ECF868B10D
:10076000601E9649085C20B90021601E944A11540D
:1007700011E00121601E924A11540CE0601E8F4965
:10078000085C20B90121601E8D4A115403E000214C
:10079000601E8B4A1154621E8A4B33F812108A4B2A
:1007A00053F8220002F0C7F868B1601E8749085C60
:1007B00020B90021601E864A115411E00121601EFB
:1007C000834A11540CE0601E8049085C20B9012165
:1007D000601E7F4A115403E00021601E7C4A1154C0
:1007E00010BD08B54FF4407001F0F0FC00214FF04F
:1007F000006001F023FD1D208DF8000000208DF821
:10080000010001208DF80300684601F0E4FC1E2081
:100810008DF80000684601F0DEFC32208DF8000003
:10082000684601F0D8FC1C208DF80000684601F0F5
:10083000D2FC25208DF8000001208DF801008DF8F4
:100840000300684601F0C7FC06208DF80000032075
:100850008DF8010001208DF80300684601F0BBFC13
:1008600007208DF80000684601F0B5FC08208DF8DF
:100870000000684601F0AFFC09208DF800006846D2
:1008800001F0A9FC08BD1CB552480178022002F015
:10089000C5F850480178022002F0C0F84D480178B0
:1008A000022002F0BBF84B480178022002F0B6F8B3
:1008B00049480068484949680843474989680843E6
:1008C0004549C9680843009000208DF804000820BD
:1008D0008DF8050001208DF80600684601F0AEFE97
:1008E0001CBD10B588B00121084602F034FA012180
:1008F000022002F030FA0121042002F02CFA01213A
:10090000082002F028FA4FF6FF70ADF8180000201A
:10091000ADF81400ADF81A00ADF8160005A9174897
:1009200002F0DFFA05A94FF0804002F0DAFA05A9DB
:100930001048343802F0D5FA05A90F48343802F0CF
:10094000D0FA2648006840082549B0FBF1F0401E67
:1009500084B201222146900702F0D4FD01222146F3
:10096000064802F0CFFD012221460248343802F049
:10097000C9FD37E034080040340C0040000400405A
:1009800070010020940100203C010020740100202F
:10099000F001002000020020600100204001002042
:1009A00020000020100000200004014084010020ED
:1009B0005001002090000020B000002051000020D5
:1009C0002401002098000020C000002055000020D5
:1009D000280100202001002010010020F03E000826
:1009E00040420F0001222146FE4802F08BFD1020FC
:1009F000ADF804000120ADF806000A20ADF80A00A9
:100A00000020ADF80C0001A94FF0804002F082FAFE
:100A100001A9F54802F07EFA01A9F44802F07AFA39
:100A200001A9F04802F076FA0121880702F089FF57
:100A30000121ED4802F085FF0121EC4802F081FF21
:100A40000121E84802F07DFF01221146900702F0E3
:100A5000C8FC01221146E44802F0C3FC0122114601
:100A6000E24802F0BEFC01221146DE4802F0B9FC69
:100A700008B010BD002401215D2002F05FF900BF25
:100A800049E0DB4830F81400DA4908801020C870CB
:100A900003208870D84951F82400D64901F0BAFEE5
:100AA000D64830F81400D3490880D54951F82400BD
:100AB000D04901F0AFFED34830F81400CD4908808A
:100AC0004820C870D04951F82400CA4901F0A2FE5C
:100AD000CE4830F81400C7490880CD4951F82400A9
:100AE000C44901F097FECB4830F81400C149088092
:100AF000C94951F82400BF4901F08CFEC74830F8BD
:100B00001400BC490880C64951F82400B94901F0D5
:100B100081FE601CC4B2042CB3DBFFF7E2FEFFF7DA
:100B2000B2FEFFF75EFE17E00120FFF70DFE022088
:100B3000FFF70AFE0320FFF707FE0420FFF704FE7D
:100B40000120FFF74AFD0220FFF747FD0320FFF7D2
:100B500044FD0420FFF741FDE6E770B504460D466D
:100B6000E1B2B04801F0C2FC00BF4021AD4801F045
:100B700014FD0028F9D0204670BD70472DE9F04FD4
:100B80008BB004460D4616461F46DDF850A00020E7
:100B90000A90601EA44951F820002D1A002D39DA60
:100BA000621E9A4B33F81210994B53F8220001F051
:100BB000C2FE78B1601E9D49085C20B90021601E0C
:100BC0009B4A115413E00121601E994A11540BB045
:100BD000BDE8F08F601E9549085C20B90121601EB8
:100BE000934A1154F3E70021601E914A11540121E8
:100BF000601E00EB40008F4A02EBC0004170621E95
:100C00007E4B33F812107E4B53F8220001F0AFFEFA
:100C10006D4235E0621E7B4B33F812107A4B53F86D
:100C2000220001F088FE68B1601E8349085C20B98B
:100C30000021601E814A115411E00121601E7F4A8B
:100C40001154C4E7601E7C49085C20B90121601E74
:100C50007A4A1154BBE70021601E784A11540021E2
:100C6000601E00EB4000734A02EBC0004170621E40
:100C7000624B33F81210624B53F8220001F075FEFC
:100C8000012D5ED1A91E601E00EB4000694A02EBF7
:100C9000C00041610221601E00EB400002F83010EC
:100CA0004FF47A71601E00EB400002EBC00041601F
:100CB000012C06D0022C09D0032C0FD0042C1DD1FE
:100CC00014E00A2041078886888517E00A204649F3
:100CD0003431088044492C3108800FE00A20434910
:100CE0003431088041492C31088007E00A203D4911
:100CF000343108803B492C31088000BF00BF0121FE
:100D0000601E4F4A1154012C06D0022C09D0032C2E
:100D10000CD0042C14D10EE00121880702F046FB10
:100D20000EE00121304802F041FB09E001212F488B
:100D300002F03CFB04E001212A4802F037FB00BF2F
:100D40004EE1002DFCD03F48B0FBFAF04108601E98
:100D500000EB4000374A02EBC00001613A48B0FBAB
:100D6000F6F00190FFF700FA834602F07CFF0022C4
:100D7000364BCDE9020102F089FE0022344BCDE969
:100D8000040102F0F3FE00224FF08043CDE906019A
:100D900002F0ECFECDE9080102F086FF611E01EBD6
:100DA0004101244A02EBC10148600AFB0AF07100CC
:100DB000B0FBF1F9B9F1000F01D14FF00109F019C1
:100DC000A84250D9F01902F049FF8346384602F094
:100DD00045FF5946099002F019FE0A90284602F094
:100DE00034FF37E0000C00400004004000080040E1
:100DF00080000020CA010020D000002088000020D0
:100E0000E000002090000020B000002098000020AA
:100E1000C0000020A0000020F0000020A80000205A
:100E20000001002000380140F001002055000020A2
:100E30002801002010020020510000202401002081
:100E40009401002040420F0080841E0040A12441F4
:100E500000408F4009900A9902F0A2FD834602F0FB
:100E60000FFF804604E0F019B5FBF0F000FB07F837
:100E7000B8F1000F01D14FF00108C84509D8A8EB1F
:100E80000501601E00EB4000FD4A02EBC000C1609E
:100E90000BE009FB06F0B0FBF7F04142601E00EBEF
:100EA0004000F74A02EBC000C160601E00EB40004A
:100EB000F34901EBC000C06840B94FF0FF31601E3C
:100EC00000EB4000EE4A02EBC000C160601E00EB88
:100ED0004000EB4901EBC000C0684119601E00EB07
:100EE0004000E74A02EBC0008160601E00EB40005A
:100EF000114601EBC0004168601E00EB400002EBB0
:100F0000C0000069814213DC601E00EB4000114606
:100F100001EBC0000169601E00EB400002EBC00065
:100F200041600321601E00EB400002F8301006E033
:100F30000121601E00EB4000D14A02F83010002170
:100F4000601E00EB4000CE4A02EBC000416101216F
:100F5000601ECC4A1154012C06D0022C09D0032C5F
:100F60000ED0042C1AD112E00A2041078886888509
:100F700014E00A20C4490880C349083908800DE0FC
:100F80000A20C2490880C1490839088006E00A20C1
:100F9000BF490880BE490839088000BF00BF012C46
:100FA00006D0022C09D0032C0DD0042C17D110E050
:100FB0000121880702F0FAF911E00121B248343822
:100FC00002F0F4F90BE00121B048343802F0EEF9F8
:100FD00005E00121AE48343802F0E8F900BF00BF57
:100FE00000BFF4E510B50121880702F0ADFC18B18F
:100FF0000121880702F0B9FCA14840684FF0804108
:1010000088869F48406888859D48007870B1012196
:10101000A04801F09DFC012804D101219D4801F068
:10102000A6FC03E001219B4801F09FFC9A48007850
:10103000401C994908700846007802287ED100209B
:1010400008708F48007830B1012814D0022876D07B
:1010500003280FD1B7E0002090490860904908604C
:1010600000214FF0804002F0A1F90020854908706E
:101070008C490870BDE189480068401C87490860B8
:101080007F48407828B988480068401C8649086035
:1010900004E085480068401E83490860784840693C
:1010A000401C77494861084640687D49096802222A
:1010B00002FB0011724840698000401C91FBF0F077
:1010C0006F494968081A84B26D48406874490968D4
:1010D00002FB00116A4840698000401C91FBF0F25D
:1010E00000FB12106E490860654880686B4909680A
:1010F00088420FD96D48007860B96D48007810B10A
:101100005F48407830B16B480078E8B35C4840787D
:10111000012848D165480078C0B1002063490870B3
:1011200065480068654991FBF0F04900484354491F
:10113000496890FBF1F05249496801E05CE1D9E06F
:1011400090FBF1F040424E49486128E05848007851
:1011500010B14B48407830B156480078D8B1484873
:101160004078012817D154480068544991FBF0F0A9
:10117000490048434249496890FBF1F040494968B9
:1011800090FBF1F0404200E00DE03D494861012054
:101190004449087003E03A48C06839494861022070
:1011A000374908700EE036480069A0420ADB44481F
:1011B00004803348006984B2002039490860032064
:1011C0002F49087015E135480068401C3349086014
:1011D0002B48407828B934480068401C32490860E0
:1011E00004E031480068401E2F4908602448006927
:1011F00084B2234880682949096888420FD92B485E
:10120000007860B92A48007810B11D48407830B1A4
:101210002848007898B31A484078012869D12348B3
:101220000078A8B1002021490870234800682349AC
:1012300091FBF0F0490048431149496890FBF1F0F7
:101240000F49496890FBF1F040420D4948614BE07D
:101250001748007810B10A48407830B11548007836
:1012600080B30748407801283AD1134800681349F1
:1012700091FBF0F0490048430149496823E038E018
:101280001002002094010020340400403408004083
:10129000340C004000180140A40100209C010020F3
:1012A000A001002030010020F00100202C010020CE
:1012B00024010020280100204000002020A1070078
:1012C000980100200CE090FBF1F0F949496890FB8F
:1012D000F1F04042F64948610120F649087003E008
:1012E000F348C068F2494861F34804880220F04995
:1012F00008707EE0F1480068401CF0490860EC4846
:10130000407828B9EE480068401CED49086004E0C8
:10131000EB480068401EEA490860E5484069401C07
:10132000E349486108464068E6490968022202FB31
:101330000011DF4840698000401C91FBF0F0DC495F
:101340004968081A84B2DA484068DE49096802FB35
:101350000011D74840698000401C91FBF0F200FB6F
:101360001210D8490860D8480078A8B10020D649A2
:101370000870D6480068D64991FBF0F04900484310
:10138000CB49496890FBF1F0C949496890FBF1F0FD
:101390004042C749486124E0C648007808BBCD48B0
:1013A000007810B1C248407830B1CB480078C0B165
:1013B000BF484078012814D1C4480068C44991FB53
:1013C000F0F049004843BA49496890FBF1F0B84948
:1013D000496890FBF1F04042B54948610120B549A8
:1013E0000870B3484069002802DB0020B04908704B
:1013F00000BF00BFAE48446010BD10B50121B74822
:1014000002F0A2FA18B10121B44802F0AEFAA848DD
:10141000C069B24934310880A548C069AF492C3150
:101420000880A348007E70B10421AD4801F090FA15
:10143000012804D10421AA4801F099FA03E004210B
:10144000A74801F092FAA7480078401CA549087007
:101450000846007802287DD1002008709448007E5C
:1014600030B1012813D0022875D003280ED1B5E081
:1014700000209D4908609D4908600021974801F0BF
:1014800095FF00209A4948708A494870BDE1964806
:101490000068401C944908608548407E28B9884807
:1014A0004068401C8649486004E085484068401E0A
:1014B000834948607E48C06A401C7D49C86208462E
:1014C000C0698A490968022202FB00117848C06A93
:1014D0008000401C91FBF0F17548C069401A84B24D
:1014E0007348C0698149096802FB00117048C06AED
:1014F0008000401C91FBF0F200FB12107B49086059
:101500006B48006A7849096888420FD96E4840786C
:1015100060B97048407810B16548407E30B16E487F
:101520004078E8B36248407E012847D16648407859
:10153000C0B100206449487064484068644991FB28
:10154000F0F0490048435A49C96990FBF1F1584805
:10155000C06901E05CE1D9E091FBF0F04142544800
:10156000C16227E05B48407810B15148407E30B1FD
:1015700059484078D8B14E48407E012817D1534889
:101580004068534991FBF0F0490048434849C96914
:1015900090FBF1F14648C06991FBF0F0414200E058
:1015A0000CE04348C16201204249487002E04048D3
:1015B000416AC16202203E4908760EE03C48806ADA
:1015C000A0420ADB4B4804803948806A84B200207C
:1015D0004649086003203649087616E1424800680B
:1015E000401C414908603248407E28B93448406870
:1015F000401C3349486004E031484068401E30498F
:1016000048602B48806A84B22948006A36490968D4
:1016100088420FD92C48407860B92E48407810B1E4
:101620002348407E30B12C484078E8B32048407EC3
:1016300001286AD124484078A8B100202249487086
:1016400022484068224991FBF0F04900484318497C
:10165000C96990FBF1F11648C06991FBF0F0414275
:101660001348C1624CE01B48407810B11048407EDE
:1016700030B119484078F8B30D48407E01283CD17C
:1016800012484068124991FBF0F04900484308496C
:10169000C96990FBF1F10648C06991FBF0F0414245
:1016A0000348C162012000E02FE00249487027E0B2
:1016B0001002002030010020980100209C01002031
:1016C000F0010020A00100202C010020400000209B
:1016D00020A1070024010020280100200004004070
:1016E00000180140B0010020A8010020AC0100203A
:1016F00094010020A6010020FFE7FB48416AC16277
:10170000FA4804880220F84908767EE0F848006824
:10171000401CF7490860F448407E28B9F548406805
:10172000401CF449486004E0F2484068401EF1491A
:101730004860ED48C06A401CEB49C8620846C06971
:10174000ED490968022202FB0011E748C06A8000E7
:10175000401C91FBF0F1E448C069401A84B2E248B1
:10176000C069E549096802FB0011DF48C06A8000D2
:10177000401C91FBF0F200FB1210DF490860DF48CB
:101780004078A8B10020DD494870DD484068DD4957
:1017900091FBF0F049004843D349C96990FBF1F14E
:1017A000D148C06991FBF0F04142CF48C16224E0CA
:1017B000D548407808BBD548407810B1CA48407E2B
:1017C00030B1D3484078C0B1C748407E012814D119
:1017D000CB484068CB4991FBF0F049004843C249EF
:1017E000C96990FBF1F1C048C06991FBF0F041423A
:1017F000BD48C1620120C4494870BB48C06A002886
:1018000002DB0020B849087600BF00BFB648C461BB
:1018100010BD10B50121BF4802F096F818B10121A2
:10182000BC4802F0A2F8B048406BBA493431088095
:10183000AD48406BB7492C310880AB4890F8300078
:1018400070B11021B44801F083F8012804D11021AF
:10185000B14801F08CF803E01021AF4801F085F8A1
:10186000AE480078401CAD49087008460078022850
:101870007DD1002008709C4890F8300030B10128DC
:1018800013D0022874D003280ED1BCE00020A44954
:101890000860A449086000219E4801F087FD0020EF
:1018A000A149887098498870CFE19D480068401C24
:1018B0009B4908608C4890F8310028B98D488068B1
:1018C000401C8C49886004E08A488068401E894931
:1018D00088608548406C401C834948640846406BDA
:1018E00090490968022202FB00117F48406C800089
:1018F000401C91FBF0F17C48406B401A84B27A485E
:10190000406B8849096802FB00117748406C8000F1
:10191000401C91FBF0F200FB1210824908607248F3
:10192000806B7F490968884211D97448807870B902
:101930007648807818B16C4890F8310038B1744816
:101940008078E8B3684890F8310001284AD16B48A4
:101950008078C0B100206949887069488068694909
:1019600091FBF0F0490048435F49496B01E06FE1AA
:10197000E8E090FBF1F15C48406B91FBF0F04142F4
:101980005948416429E06148807818B1564890F878
:10199000310038B15E488078E0B1534890F83100AA
:1019A000012817D156488068564991FBF0F049004C
:1019B00048434D49496B90FBF1F14B48406B00E0C7
:1019C00010E091FBF0F041424748416401204E494C
:1019D000887002E04448C16B41640220424981F8AA
:1019E00030000FE04048006CA0420BDB4F48048001
:1019F0003D48006C84B200204A49086003203A49FF
:101A000081F8300021E146480068401C44490860E4
:101A1000354890F8310028B936488068401C35496F
:101A2000886004E033488068401E324988602E4850
:101A3000006C84B22C48806B39490968884211D9FE
:101A40002E48807870B93148807818B1264890F8CF
:101A5000310038B12E488078F0B3234890F8310037
:101A600001286ED125488078A8B1002023498870CC
:101A700023488068234991FBF0F0490048431A4904
:101A8000496B90FBF1F11848406B91FBF0F041423B
:101A9000154841644FE01D48807818B1124890F80D
:101AA000310038B11A488078E0B10F4890F8310021
:101AB00001283DD112488068124991FBF0F049009D
:101AC00048430949496B90FBF1F10748406B91FB92
:101AD000F0F04142044800E033E0416401200A494B
:101AE000887028E024E0000010020020A6010020F9
:101AF000A8010020F0010020AC0100202C010020F2
:101B00004000002020A10700300100202401002017
:101B1000280100200008004000180140BC010020FE
:101B2000B4010020B801002094010020B20100207F
:101B3000FD48C16B4164FD4804880220FA4981F8E0
:101B4000300082E0FA480068401CF9490860F64815
:101B500090F8310028B9F7488068401CF549886042
:101B600004E0F4488068401EF2498860EE48406C0A
:101B7000401CED4948640846406BEF490968022261
:101B800002FB0011E848406C8000401C91FBF0F122
:101B9000E548406B401A84B2E348406BE649096867
:101BA00002FB0011E048406C8000401C91FBF0F209
:101BB00000FB1210E0490860E0488078A8B10020DE
:101BC000DE498870DE488068DE4991FBF0F049000C
:101BD0004843D549496B90FBF1F1D348406B91FBE9
:101BE000F0F04142D048416426E0D748807818BBE5
:101BF000D648807818B1CC4890F8310038B1D44834
:101C00008078C8B1C84890F83100012814D1CC4878
:101C10008068CC4991FBF0F049004843C249496BC8
:101C200090FBF1F1C048406B91FBF0F04142BE489F
:101C300041640120C4498870BB48406C002803DB24
:101C40000020B94981F8300000BF00BFB6484463A6
:101C500010BD10B50121BF4801F076FE18B1012179
:101C6000BC4801F082FEB048C06CBA4934310880EB
:101C7000AD48C06CB7492C310880AB4890F848009B
:101C800070B14021B44800F063FE012804D1402126
:101C9000B14800F06CFE03E04021AF4800F065FE63
:101CA000AE480078401CAD4908700846007802280C
:101CB0007DD1002008709C4890F8480030B1012880
:101CC00013D0022874D003280ED1BCE00020A44910
:101CD0000860A449086000219E4801F067FB0020CD
:101CE000A149C8709849C870CFE19D480068401C60
:101CF0009B4908608C4890F8490028B98D48C06815
:101D0000401C8C49C86004E08A48C068401E89496C
:101D1000C8608548C06D401C8349C8650846C06CD2
:101D200090490968022202FB00117F48C06D8000C3
:101D3000401C91FBF0F17C48C06C401A84B27A4898
:101D4000C06C8849096802FB00117748C06D8000AB
:101D5000401C91FBF0F200FB1210824908607248AF
:101D6000006D7F490968884211D97448C07870B9FC
:101D70007648C07818B16C4890F8490038B174487A
:101D8000C078E8B3684890F8490001284AD16B4808
:101D9000C078C0B100206949C8706948C068694905
:101DA00091FBF0F0490048435F49C96C01E06FE1E5
:101DB000E8E090FBF1F15C48C06C91FBF0F041422F
:101DC0005948C16529E06148C07818B1564890F873
:101DD000490038B15E48C078E0B1534890F84900F6
:101DE000012817D15648C068564991FBF0F04900C8
:101DF00048434D49C96C90FBF1F14B48C06C00E081
:101E000010E091FBF0F041424748C16501204E4986
:101E1000C87002E04448416DC1650220424981F822
:101E200048000FE04048806DA0420BDB4F48048023
:101E30003D48806D84B200204A49086003203A4939
:101E400081F8480021E146480068401C4449086088
:101E5000354890F8490028B93648C068401C3549D3
:101E6000C86004E03348C068401E3249C8602E484C
:101E7000806D84B22C48006D39490968884211D9B7
:101E80002E48C07870B93148C07818B1264890F80B
:101E9000490038B12E48C078F0B3234890F8490083
:101EA00001286ED12548C078A8B100202349C87008
:101EB0002348C068234991FBF0F0490048431A4980
:101EC000C96C90FBF1F11848C06C91FBF0F04142F5
:101ED0001548C1654FE01D48C07818B1124890F808
:101EE000490038B11A48C078E0B10F4890F849006D
:101EF00001283DD11248C068124991FBF0F0490019
:101F000048430949C96C90FBF1F10748C06C91FB4B
:101F1000F0F04142044800E033E0C16501200A4985
:101F2000C87028E024E0000010020020B201002068
:101F3000B4010020F0010020B80100202C01002095
:101F40004000002020A107003001002024010020D3
:101F500028010020000C004000180140C8010020AA
:101F6000C0010020C401002094010020BE01002017
:101F70008048416DC1658048048802207D4981F810
:101F8000480082E07D480068401C7C490860794830
:101F900090F8490028B97A48C068401C7849C86060
:101FA00004E07748C068401E7549C8607148C06D3C
:101FB000401C7049C8650846C06C72490968022215
:101FC00002FB00116B48C06D8000401C91FBF0F1DA
:101FD0006848C06C401A84B26648C06C6949096898
:101FE00002FB00116348C06D8000401C91FBF0F2C1
:101FF00000FB1210634908606348C078A8B1002054
:102000006149C8706148C068614991FBF0F04900BE
:1020100048435849C96C90FBF1F15648C06C91FB9C
:10202000F0F041425348C16526E05A48C07818BBD9
:102030005948C07818B14F4890F8490038B157480E
:10204000C078C8B14B4890F84900012814D14F48D6
:10205000C0684F4991FBF0F0490048434549C96CBD
:1020600090FBF1F14348C06C91FBF0F041424148D4
:10207000C16501204749C8703E48C06D002803DB98
:1020800000203C4981F8480000BF00BF3948C464C3
:1020900010BD10B5012000F03BFBA8B13848006826
:1020A0003F49086001203F4908703F48007810B15F
:1020B000012035490870012000F03BFB3B480068D7
:1020C00020F001003949086010BD10B5022000F071
:1020D0001FFBA8B12A4840683149486001203149B6
:1020E00048703148407810B10120274948700220DB
:1020F00000F01FFB2D48006820F002002B4908600B
:1021000010BD10B5042000F003FBA8B11C48806886
:10211000234988600120234988702348807810B1C2
:10212000012019498870042000F003FB1F48006853
:1021300020F004001D49086010BD10B5082000F013
:10214000E7FAA8B10E48C0681549C86001201549D2
:10215000C8701548C07810B101200B49C87008201C
:1021600000F0E7FA1148006820F008000F49086005
:1021700010BD000010020020BE010020C0010020A0
:10218000F0010020C40100202C01002040000020AC
:1021900020A1070030010020240100202801002098
:1021A000000200203C0100209401002000040140B6
:1021B000704700BFFEE700BFFEE700BFFEE700BFBD
:1021C000FEE7704770477047704700003149014390
:1021D000314A1160704770B5002100230F22C47886
:1021E0000CB32D4C246804F4E064C4F5E064210AC7
:1021F000C1F10403CA40447804FA03F1847814401E
:1022000021430901254C0678A155047804F01F05E7
:102210000124AC4005786D114FF0E02606EB8505F2
:10222000C5F8004109E0047804F01F050124AC4022
:102230001B4D0678761145F8264070BD194A0A40B4
:102240000243154B1B1F1A60704739B1124A121D09
:1022500012680243104B1B1D1A6006E00E4A121D45
:10226000126882430C4B1B1D1A607047042808D16A
:102270004FF0E021096941F004014FF0E0221161C3
:1022800007E04FF0E021096921F004014FF0E0225E
:10229000116170470000FA050CED00E000E400E079
:1022A00080E100E080FFFF1F10B50446D949601AA5
:1022B0008C422BD006DCD848201813D0B0F5806FA4
:1022C00038D119E0B0F5806F2AD0B0F56C4F31D11C
:1022D0000121880300F04CFD00214FF4804000F004
:1022E00047FD28E00121480400F04FFD00214FF494
:1022F000003000F04AFD1EE00121880400F045FD99
:1023000000214FF4802000F040FD14E00121C804BA
:1023100000F03BFD00214FF4002000F036FD0AE004
:102320000121080500F031FD00214FF4801000F07C
:102330002CFD00E000BF00BF10BD2DE9F04786B0C6
:1023400005460E460024A24600BF00BF00272F46C8
:102350002C8A4CF6FF700440F08804432C82AC8930
:102360004EF6F3100440B088318908437189084360
:102370000443AC81AC8A4FF6FF400440B08904436B
:10238000AC8201A800F06DFCA448874202D1DDF8C0
:1023900010A001E0DDF80CA00AEBCA0000EB0A1067
:1023A00031688900B0FBF1F86420B8FBF0F004015B
:1023B0002009642101FB1089322000EB0910B0FBD9
:1023C000F1F000F00F0004432C8106B0BDE8F08767
:1023D0004FF41651016000218180C18001810C21E0
:1023E000418100218181704710B502460020108A8A
:1023F0004FF2FF0318400B884C8823438C882343FB
:10240000CC8823431843108210BD002101804180F5
:102410008180C180704721B1828942F4005282815B
:1024200004E082894DF6FF731A4082817047F0B54F
:10243000034600240026002500201846C1F342145C
:1024400001F01F06012707FA06F5012C01D10C3017
:1024500004E0022C01D1103000E014301AB10768FA
:102460002F43076002E00768AF430760F0BD10B577
:102470001AB1838A0B43838204E0838ACC43A4B2DB
:102480002340838210BD028A4FF6F0731A40028205
:10249000028A0A430282704782894FF2FF731A4010
:1024A000828182890A438281704721B1828942F008
:1024B0000202828104E082894FF6FD731A40828114
:1024C0007047028A4FF6DF731A400282028A0A437B
:1024D0000282704721B1028A42F48042028204E003
:1024E000028A4BF6FF731A4002827047C1F308025A
:1024F0008280704701468888C0F308007047818950
:1025000041F0010181817047028BD2B20283028BBC
:1025100042EA012202837047028B02F47F42028367
:10252000028B0A430283704721B1828A42F0200263
:10253000828204E0828A4FF6DF731A4082827047FB
:1025400021B1828A42F01002828204E0828A4FF630
:10255000EF731A408282704721B1828A42F00802EA
:10256000828204E0828A4FF6F7731A4082827047B3
:10257000828A4FF6FB731A408282828A0A438282E1
:10258000704721B1828A42F00202828204E0828A8C
:102590004FF6FD731A40828270470246002013886E
:1025A0000B4201D0012000E000207047CA430280A6
:1025B000704770B502460B4600240021002500201C
:1025C000C3F3421503F01F01012606FA01F1012DA4
:1025D00002D19689314006E0022D02D1168A31409F
:1025E00001E0968A31401C12012606FA04F416888E
:1025F000344011B10CB1012000E0002070BD10B5D5
:10260000002200230A1201249440A3B2DC43048078
:1026100010BD0000004C004000BCFFBF003801406E
:10262000002046490860091D0860091D0860091D51
:102630000860434841491431086070478179002996
:102640003ED03E490968026891433C4A1160111D21
:10265000096802689143394A121D11600179121FFD
:102660008958026811430279344BD15033490831FB
:10267000096802689143314A08321160111D0968E6
:10268000026891432D4A0C321160417910290ED114
:10269000111F096802681143284A08321160111D90
:1026A000096802681143254A0C32116010E0417933
:1026B000224A8958026811434279204BD15007E0E1
:1026C00001791E4A89580268914302791B4BD15007
:1026D00070470021016001710C214171002181715D
:1026E00070471649103109680143144A10321160CD
:1026F000704701460020114A143212680A4201D084
:10270000012000E0002070470C4914310860704738
:10271000014600200022094B1B6803EA0102074B17
:1027200014331B680B4202D00AB1012000E00020E4
:1027300070470249143108607047000000040140EE
:10274000FFFF070010B50446C549601A8C422FD020
:1027500009DCC448201810D0B0F5806F16D0B0F551
:10276000006F4AD11BE0B0F5806F2AD0B0F5006F42
:1027700030D0B0F5406F40D135E00121042000F0A9
:10278000F7FA0021042000F0F3FA37E001210820D5
:1027900000F0EEFA0021082000F0EAFA2EE0012114
:1027A000102000F0E5FA0021102000F0E1FA25E009
:1027B0000121202000F0DCFA0021202000F0D8FACE
:1027C0001CE00121402000F0D3FA0021402000F05D
:1027D000CFFA13E00121802000F0CAFA0021802006
:1027E00000F0C6FA0AE00121080200F0C1FA002157
:1027F0004FF4807000F0BCFA00E000BF00BF10BDD5
:1028000010B50121084600F0B3FA0021012000F0C4
:10281000AFFA10BD2DE9F041024600250026002048
:1028200000230024002791F803C00CF00F0591F855
:1028300003C01CF0100F03D091F802C04CEA05054C
:10284000B1F800C01CF0FF0F31D0146800202BE05D
:102850004FF0010C0CFA00F3B1F800C00CEA0306CB
:102860009E4220D183004FF00F0C0CFA03F7BC43BB
:1028700005FA03FC4CEA040491F803C0BCF1280FEC
:1028800006D14FF0010C0CFA00FCC2F814C00AE0AB
:1028900091F803C0BCF1480F05D14FF0010C0CFAC0
:1028A00000FCC2F810C0401C0828D1D31460B1F855
:1028B00000C0BCF1FF0F34DD546800202EE000F1B1
:1028C000080C4FF0010808FA0CF3B1F800C00CEA4C
:1028D00003069E4221D183004FF00F0C0CFA03F740
:1028E000BC4305FA03FC4CEA040491F803C0BCF1B4
:1028F000280F05D100F1080C08FA0CF8C2F8148072
:1029000091F803C0BCF1480F07D100F1080C4FF05B
:10291000010808FA0CF8C2F81080401C0828CED331
:102920005460BDE8F0814FF6FF7101800221817093
:102930000421C17070470246002093680B4201D009
:10294000012000E0002070470146886880B270478F
:1029500002460020D3680B4201D0012000E0002095
:1029600070470146C86880B2704701617047416195
:1029700070470AB1016100E041617047C160704772
:102980004FF480320A438261816182618269826987
:10299000704702460020344B18684FF68073184089
:1029A00040EA02100843304B186070472F49C86155
:1029B0007047F0B50A4600230024002100252A4E66
:1029C0007168C0F3034583B200F44016B6F5401FAA
:1029D00008D121F07061244E766826F07066224F8F
:1029E0007E6012E000F48016B6F5801F06D1032643
:1029F00006FA05F4A14341F0706106E0460D360188
:102A000003FA06F6B14341F0706122B1460D36017A
:102A100003FA06F63143144E7160F0BD30B5002262
:102A20008B071C0F0F2303FA04F20F4B08338C1093
:102A300053F8243093430C4C08348D1044F825305F
:102A400023468C1053F824308C07240F00FA04F42A
:102A50002343054C08348D1044F8253030BD000068
:102A60000014014000F8FEBF0000014000002042B9
:102A7000DB48006840F00100D9490860084640681A
:102A8000D8490840D649486008460068D6490840F9
:102A9000D34908600846006820F480200860084692
:102AA000406820F4FE004860002088607047CC49F0
:102AB000096821F48031CA4A11601146096821F47D
:102AC00080211160B0F5803F03D0B0F5802F0ED18A
:102AD00006E0C349096841F48031C14A116007E04A
:102AE000BF49096841F4A021BD4A116000E000BF60
:102AF00000BF704710B501460022002300204A1194
:102B0000012A02D1B64C236806E0022A02D1B44C55
:102B1000236A01E0B24C636A01F01F020124944071
:102B20001C4201D0012000E0002010BD70B500243F
:102B30000025002600BF3120FFF7DCFF0646641C9D
:102B400016B9B4F5A06FF6D13120FFF7D3FF08B165
:102B5000012500E00025284670BD01460020A04A5E
:102B6000106820F0F80040EAC100106070479F49EB
:102B70000860704702460020994B586820F47C108A
:102B800042EA01031843964B58607047974908661C
:102B9000704701460020924A506820F00300084325
:102BA000506070478E48406800F00C007047014646
:102BB00000208B4A506820F0F000084350607047B6
:102BC00001460020864A506820F4E06008435060C7
:102BD000704701460020824A506820F4605040EA65
:102BE000C1005060704729B17D4A527A02437C4B44
:102BF0005A7206E07A4A527AC343DBB21A40784BE3
:102C00005A7270477A490860704701460020744A3A
:102C1000506820F440400843506070470021754AD6
:102C200011706F4A82F82010012802D0042808D1C0
:102C300003E001216F4A117004E005216D4A117013
:102C400000E000BF00BF70476B49086070476449EF
:102C5000096A0143624A1162704767494439086052
:102C6000704730B500210022002400235C4D6D68C0
:102C700005F00C0121B1042905D0082923D105E074
:102C80005E4D056022E05D4D05601FE0544D6D68AE
:102C900005F47012022505EB9242514D6D6805F462
:102CA00080341CB9564D554305600BE04C4D6D68A2
:102CB00015F4003F03D0524D5543056002E04F4DDF
:102CC0005543056002E04D4D056000BF00BF444D17
:102CD0006D6805F0F00109094A4D6B5C0568DD403F
:102CE00045603F4D6D6805F4E061090A454D6B5C38
:102CF0004568DD4085603A4D6D6805F46051C90A4C
:102D0000404D6B5C4568DD40C560354D6D6805F430
:102D10004041890B3C4D6B5CC568B5FBF3F5056123
:102D200030BD29B12E4A526902432D4B5A6104E04D
:102D30002B4A526982432A4B5A61704729B1284A6B
:102D400092690243264B9A6104E0254A92698243C4
:102D5000234B9A61704729B1214AD2690243204B23
:102D6000DA6104E01E4AD26982431D4BDA61704782
:102D700029B11B4AD2680243194BDA6004E0184AB1
:102D8000D2688243164BDA60704729B1144A12693F
:102D90000243134B1A6104E0114A12698243104B3B
:102DA0001A61704714494039086070470F49C86478
:102DB00070470B49C87170470948406A40F08070FD
:102DC00007494862704701460020054A92680A4256
:102DD00001D0012000E0002070470149887270474F
:102DE000001002400000FFF8FFFFF6FE0000424224
:102DF000D8004242201002408004424200127A0071
:102E000000093D00D9010020E901002010B5044669
:102E1000FB49601A8C4245D00CDCB4F1804F1DD0C8
:102E2000F848201823D0B0F5806F29D0B0F5006F96
:102E300054D12EE0B0F5806F3DD0B0F58E3F03D079
:102E4000B0F5923F4AD13FE00121C802FFF790FF61
:102E500000214FF40060FFF78BFF40E0012108469E
:102E6000FFF793FF00210120FFF78FFF37E00121DB
:102E70000220FFF78AFF00210220FFF786FF2EE0E5
:102E800001210420FFF781FF00210420FFF77DFFCF
:102E900025E001210820FFF778FF00210820FFF737
:102EA00074FF1CE001211020FFF76FFF00211020AC
:102EB000FFF76BFF13E001212020FFF766FF0021E1
:102EC0002020FFF762FF0AE001214803FFF750FFCF
:102ED00000214FF40050FFF74BFF00E000BF00BFA0
:102EE00010BD028802F08F020280CA884B881A4304
:102EF00003881A4302808A8882850A880285C24A2A
:102F0000904202D0C14A904201D10A7A028601223F
:102F10008282704770B5002400220023058C4FF692
:102F2000FE7635400584028C8388048B4FF68F75BE
:102F30002C400D882C43751E2A400D892A434D884C
:102F40002A43CD888586B04DA84202D0AF4DA84215
:102F500013D14FF6F7752A404D892A434FF6FB757A
:102F60002A408D882A4347F6FF652B4047F6FF55D8
:102F70002B408D892B43CD892B438380048302848E
:102F800070BD70B5002400220023058C4FF6EF764B
:102F900035400584028C8388048B48F6FF752C40ED
:102FA0000D882D0644EA15444FF6DF752A400D8939
:102FB0002D0542EA15424D882D0542EA1542CD887D
:102FC0000587914DA84202D0904DA8421BD14FF6E3
:102FD0007F752A404D892D0542EA15424FF6BF758F
:102FE0002A408D882D0542EA154247F6FF352B40D1
:102FF00047F2FF752B408D89AD0443EA1543CD8917
:10300000AD0443EA154383800483028470BD70B528
:10301000002400220023058C4FF6FF66354005840E
:10302000028C8388848B4FF68F752C400D882C433F
:103030004FF6FF552A400D892D0642EA15424D886C
:103040002D0642EA1542CD8885876F4DA84202D0F1
:103050006E4DA8421BD14FF2FF752A404D892D06B7
:1030600042EA15424FF6FF352A408D882D0642EA86
:10307000154246F6FF752B4045F6FF752B408D89AE
:103080002D0543EA1543CD892D0543EA1543838079
:103090008483028470BD70B5002400220023058C57
:1030A0004EF6FF7635400584028C8388848B48F683
:1030B000FF752C400D882D0644EA15444DF6FF752A
:1030C0002A400D892D0742EA15424D882D0742EA14
:1030D0001542CD88A0F840504B4DA84202D04B4D30
:1030E000A84205D1C3F30D038D89AD0543EA15430D
:1030F00083808483028470BD828B4FF2FF331A4039
:103100008283828B0B0642EA134282837047F0B5BA
:103110000C461546002100220026078C4EF6FF7C47
:1031200007EA0C070784818B028C27073E0C40F6C8
:10313000FF4739402F063F0C4FEA037C47EA1C4704
:1031400039434DF6FF773A4046F480573A4381833E
:103150000284F0BD828B4FF6F3731A408283828B18
:103160000A4382837047F0B50C46154600210022C1
:103170000026078C4FF6FF6C07EA0C070784818B4B
:10318000028C27063E0C4FF60C7739401F0545EAA6
:10319000174739434FF6FF573A4046F480773A4392
:1031A00081830284F0BD028B4FF2FF331A40028309
:1031B000028B0B0642EA134202837047F0B50C46BD
:1031C0001546002100220026078C4FF6EF7C07EA07
:1031D0000C070784018B028C27053E0C40F6FF4745
:1031E00039401F0741EA17412F0641EA17414FF6C0
:1031F000DF773A4046F010073A4301830284F0BD7E
:103200000010004000FCFFBF002C014000340140D2
:10321000028B4FF6F3731A400283028B0A43028338
:103220007047F0B50C46154600210022068C4FF67B
:10323000FE773E400684018B028C4FF60C763140BF
:103240001E0545EA164631437E1E324044F0010613
:10325000324301830284F0BD70B505460C462088D8
:1032600050B92389A28861882846FFF7DAFFE188F0
:103270002846FFF7CDFF25E0208804280AD12389BE
:10328000A28861882846FFF799FFE1882846FFF762
:103290008AFF17E0208808280AD12389A28861883C
:1032A0002846FFF760FFE1882846FFF753FF09E053
:1032B0002389A28861882846FFF729FFE1882846EC
:1032C000FFF71AFF70BD2DE9F04105460C460026B8
:1032D0000127608808B9022600E00026A08801289E
:1032E00001D1022700E001272088A0B92389A28804
:1032F00061882846FFF795FFE1882846FFF788FF99
:1033000023893A4631462846FFF758FFE188284688
:10331000FFF749FF13E02389A28861882846FFF759
:103320004DFFE1882846FFF73EFF23893A463146A4
:103330002846FFF776FFE1882846FFF769FFBDE8DA
:10334000F0810A884B881A438B881A43CB881A432A
:103350000B891A434B891A438B891A43A0F84420DE
:1033600070474FF6FF71818000210180C18041804C
:10337000017270470021018041808180C1800181FC
:1033800041818181C18170470021018041800121FB
:1033900081800021C180018170470021018041802E
:1033A0008180C180018141818181704721B1028882
:1033B00042F00102028004E0028840F2FE331A402B
:1033C0000280704731B1B0F8442042F40042A0F8C6
:1033D000442005E0B0F84420C2F30E02A0F84420D7
:1033E000704710B51AB183890B43838104E0838948
:1033F000CC43A4B22340838110BD8182704741EA4F
:103400000203A0F84830704710B51AB183890B4306
:10341000838104E08389CC43A4B22340838110BD1F
:1034200001894FF6F8721140018170470A46002168
:1034300001894FF68F73194011430181704730B5F0
:1034400004460D4629462046FFF7F0FF208940F04C
:103450000700208130BD2DE9F04104460D46164697
:103460001F46602D06D13B46012231462046FFF71C
:10347000A5FE05E03B46012231462046FFF7D1FE7E
:1034800029462046FFF7D2FF208940F0070020811F
:10349000BDE8F08170B50C4600210189C9B244EA4B
:1034A00002051E0645EA16452943018170BD2DE936
:1034B000F04105460E4617469846002443463A46D4
:1034C00031462846FFF7E6FF2C894FF6F870044096
:1034D00044F007044FF68F70044044F070042C81D0
:1034E000BDE8F081F0B504460D4616461F463B4642
:1034F000324629462046FFF7CDFF208940F4804020
:103500002081F0BD0185828270470A460021018832
:1035100040F28F331940114301807047F0B50C46DB
:1035200015461E460021002200230189028B038CD0
:103530004FF6F877394021434FF6FC473A4040F2C6
:1035400001173A434FF6DD773B40370545EA174709
:103550003B43018102830384F0BD0A460021018BB5
:103560004FF68F7319401143018370470A460021BB
:10357000018B48F6FF731940130641EA134101839A
:1035800070470A460021818B4FF68F731940114313
:10359000818370470A460021818B48F6FF731940EA
:1035A000130641EA13418183704721B1028842F03A
:1035B0008002028004E0028840F27F331A400280D9
:1035C000704721B1828842F00402828004E0828840
:1035D0004FF6FB731A408280704721B1828842F017
:1035E0000802828004E082884FF6F7731A408280D6
:1035F000704721B1828842F00102828004E0828813
:103600004FF6FE731A40828070470A460021018BF4
:103610004FF6F77319401143018370470A460021A2
:10362000018B4FF2FF731940130641EA13410183E6
:1036300070470A460021818B4FF6F77319401143FA
:10364000818370470A460021818B4FF2FF73194036
:10365000130641EA1341818370470A460021018B1A
:103660004FF6FB7319401143018370470A4600214E
:10367000018B4FF6FF331940130641EA13410183D2
:1036800070470A460021818B4FF6FB7319401143A6
:10369000818370470A460021818B4FF6FF33194022
:1036A000130641EA1341818370470A460021018BCA
:1036B0004FF67F7319401143018370470A4600217A
:1036C000018BC1F30E01130641EA134101837047D8
:1036D0000A460021818B4FF67F7319401143818385
:1036E00070470A460021818BC1F30E01130641EA9F
:1036F0001341818370470A460021018C4FF6FD7308
:1037000019401143018470470A460021018C4FF68D
:10371000F77319401143018470470A460021018C58
:103720004FF6DF731940130541EA134101847047D6
:103730000A460021018C4FF67F731940130541EAB8
:103740001341018470470A460021018C4FF6FF5354
:103750001940130641EA1341018470470A460021CB
:10376000018C4FF2FF731940130641EA13410184A3
:1037700070470A460021018C4DF6FF73194013076C
:1037800041EA13410184704710B5048C01238B403A
:10379000DB439BB21C400484038C02FA01F4A4B204
:1037A0002343038410BD10B5048C04238B40DB43FA
:1037B0009BB21C400484038C02FA01F4A4B223439C
:1037C000038410BD30B5048C01238B40DB439BB2D6
:1037D0001C40048409B1082918D100F1180303EB37
:1037E00061031B684FF68F74234000F1180404EB4B
:1037F0006104236000F1180303EB61031B681343AA
:1038000000F1180404EB6104236021E00B1F9CB25B
:1038100000F1180303EB64031B6848F6FF742340B0
:103820000C1FA5B200F1180404EB650423600B1F04
:103830009CB200F1180303EB64031B68140643EA0F
:1038400014430C1FA5B200F1180404EB65042360B7
:1038500030BD21B1028842F00202028004E00288F9
:1038600040F2FD331A400280704721B1028842F0D5
:103870000402028004E0028840F2FB331A40028016
:10388000704721B1828842F08002828004E0828801
:103890004FF67F731A4082807047028840F2F733F8
:1038A0001A40028002880A430280704782884FF6DD
:1038B0008F731A40828082880A438280704702890F
:1038C0004FF6F8731A40028102890A430281704759
:1038D00002894FF67F731A40028102890A430281EE
:1038E0007047818470478185704781867047018762
:1038F000704781877047A0F8401070470288D2B2A5
:10390000028002880A43028070470146888E704711
:103910000146088F70470146888F70470146B1F80D
:10392000400070470146888C70470146088D7047FB
:1039300002460020138A0B4201D0012000E0002043
:103940007047CA430282704730B502460020002308
:103950000024158A05EA0103958905EA010413B1DB
:103960000CB1012000E0002030BDCA430282704744
:10397000704708488047084981F30888074800478E
:10398000FEE7FEE7FEE7FEE7FEE7FEE7FEE7FEE70F
:10399000FEE7FEE7713900089004002031010008BD
:1039A00080EA010210B502F00042400026D04B0030
:1039B00023D04FEA106101EB1361C0F35600C3F34B
:1039C000560340F4000043F40003A0FB0330A1F1D0
:1039D0007F014FEA00401C0401D000F1010050EAD1
:1039E000134001D44000491EC3B20C0604EBD010B2
:1039F000401C4008802B02D003E0002010BD20F0C6
:103A00000100002900DA0020104310BD80EA010205
:103A100002F0004330B430F0004221F0004015D0F5
:103A2000A0B1C0F3C755C2F3C754C2F31601C0F327
:103A30001600651B41F4000140F400007D35814211
:103A400001D36D1C00E04900002D02DA30BC0020DB
:103A500070474FF400020024814201D3091A144335
:103A600052084FEA4101F7D151B1814202D14FF0E2
:103A7000004105E002D24FF0010101E06FF00101C9
:103A800004EBC55030BC184400F03DB92DE9FE4FA1
:103A900081EA030421F0004504F0004423F00041D2
:103AA0004FF0000A009450EA050302D052EA0103E5
:103AB00004D10020014603B0BDE8F08FC1F30A53E2
:103AC000C5F30A541C44A0FB02B3C5F3130545F427
:103AD000801CC1F3130141F480180CFB023300FB7E
:103AE000083EA4F2F334810A930A41EA8C5143EA76
:103AF00088530194A1FB03474FEA9C2505FB037300
:103B00004FEA982601FB06373D05260545EA1435A0
:103B1000BBEB06016EEB0503850E920E45EA8C1594
:103B200042EA8812A5FB0206261E67EB00070C0D71
:103B300044EA0334A41947EB1350C1F313064FF0C2
:103B4000000319464FEA033343EA165343EA0403DA
:103B5000019CE5FB0201A4F10C040294009C4FEAD5
:103B60000632CDE900A400F011F9A4E72DE9F04DEB
:103B700081EA030404F0004B21F0004714464FF0A3
:103B8000000A23F0004150EA070220D054EA010263
:103B90001DD0C1F30A550246C1F31300C7F30A56FC
:103BA000C7F3130340F4801143F48013A6EB050818
:103BB000101BD64608F2FD3873EB010002D308F162
:103BC000010801E092185B41B8F1000F03DA002010
:103BD0000146BDE8F08D00204FF4801506460746EB
:103BE0000EE0B2EB040C73EB010C04D3121B064382
:103BF00063EB01032F436D084FEA300092185B41DD
:103C000050EA050CEDD152EA030012D082EA04001A
:103C100083EA0105284303D100224FF0004308E066
:103C2000101B8B4102D20122002302E06FF001023F
:103C300053101AEB060047EB085110EB0A0041EB5A
:103C40000B01BDE8F04D00F094B8C10F80EAE070C0
:103C50000844CA079623002100F05EB8962300228C
:103C6000114600F059B80EB540F2334102910021DF
:103C7000CDE900110A460B4600F088F803B000BDFC
:103C800020F00040C10DC0F3160040F400007F2971
:103C900001DA00207047962903DCC1F19601C84083
:103CA000704796398840704770B5C1F30A5201F0E9
:103CB00000450024C1F3130140F2FF3341F48011A9
:103CC0009A4201DA002070BD40F233439A42A2F2D8
:103CD000334203DC524200F006F800E090402C43EF
:103CE000F1D0404270BD202A04DB203A21FA02F0D4
:103CF0000021704721FA02F3D040C2F12002914026
:103D00000843194670470029A8BF7047401C490066
:103D100008BF20F00100704710B4B0FA80FC00FA30
:103D20000CF050EA010404BF10BC704749B1CCF15B
:103D3000200421FA04F411FA0CF118BF01212143E7
:103D40000843A3EB0C01CB1D0106000A002BBEBFEC
:103D5000002010BC704700EBC35010440029A4BFE2
:103D600010BC7047401C490008BF20F0010010BC87
:103D7000704710B5002B08DA401C41F10001921881
:103D80005B411A4301D120F0010010BD2DE9F04D37
:103D900092469B4611B1B1FA81F202E0B0FA80F28C
:103DA0002032904600F056F806460F4640EA0A00D8
:103DB00041EA0B0152465B46084303D1304639467F
:103DC000BDE8F08D194652EA010015D0C8F1400255
:103DD0005046FFF788FF04460D4650465946424676
:103DE00000F038F8084301D0012000E0002004432F
:103DF00045EAE07526432F430A984FEAD625A0EB03
:103E000008000A304FEA46534FF0000245EA475592
:103E10004FEAD72402D500200146D1E70105501909
:103E20006141DDE9084500196941BDE8F04DA0E7B1
:103E3000064C074D06E0E06840F0010394E80700F7
:103E400098471034AC42F6D3FCF776F9003F0008EF
:103E5000203F0008202A04DB203A00FA02F100206B
:103E600070479140C2F1200320FA03F319439040B8
:103E7000704770B501EB020410F8015B15F0070301
:103E800001D110F8013B2A1106D110F8012B03E0F3
:103E900010F8016B01F8016B5B1EF9D12B0705D4FB
:103EA0000023521E0FD401F8013BFAE710F8013B42
:103EB00002F10202A1EB030303E013F8015B01F836
:103EC000015B521EF9D5A142D6D3002070BD02E09D
:103ED00008C8121F08C1002AFAD170477047002095
:103EE00001E001C1121F002AFBD1704700A24A0461
:103EF00000A24A0400A24A040051250200A24A047A
:103F0000203F000800000020F0010000723E000881
:103F10009C3F0008F0010020A0020000DE3E0008E7
:103F200014F04902A904231027092A04CBE8FD0450
:103F3000119A010131DDFFFFFF7F04B90112011267
:103F400004121012401202120812201A8040C911E5
:103F50001A01091A040B1A801339050B3C180104C5
:103F60000A1510044A0C0429B4320232044208042F
:103F70001C0102032930A9041AE82EA90411DA1938
:103F80000431CB102704CBD00704014919BC2A0403
:0C3F900004280806070809020406D000F7
:0400000508000131BD
:00000001FF
