:020000040800F2
:10000000C80600209D010008B70C0008170C000866
:10001000B50C000825090008AD200008000000000C
:10002000000000000000000000000000A90E000811
:100030002709000800000000C50D0008710F000826
:10004000B7010008B7010008B7010008B7010008B0
:10005000B7010008B7010008290900087109000864
:10006000B9090008010A0008B7010008B701000833
:10007000B7010008B7010008B7010008B701000880
:10008000B7010008B7010008B7010008B701000870
:10009000B7010008B7010008B7010008B701000860
:1000A000B7010008B7010008B7010008B701000850
:1000B000D10F0008C9120008CD150008B7010008CB
:1000C000B7010008B7010008B7010008B701000830
:1000D000B7010008B7010008551E0008B701000865
:1000E000B7010008B7010008B7010008B701000810
:1000F000B7010008B7010008B7010008B701000800
:10010000B7010008B7010008D9180008B7010008B6
:10011000B7010008B7010008B7010008B7010008DF
:10012000B7010008B7010008B7010008B7010008CF
:10013000B7010008B7010008B7010008B7010008BF
:10014000B7010008B7010008B7010008B7010008AF
:10015000B7010008B7010008B7010008B70100089F
:10016000B7010008B7010008B7010008B70100088F
:10017000B7010008B7010008B7010008B70100087F
:10018000B7010008B7010008DFF80CD000F092F9C1
:1001900000480047CD200008C806002006488047D8
:1001A00006480047FEE7FEE7FEE7FEE7FEE7FEE75C
:1001B000FEE7FEE7FEE7FEE7750F0008890100088D
:1001C0002DE9FE4F81EA030421F0004504F00044CC
:1001D00023F000414FF0000A009450EA050302D0DA
:1001E00052EA010304D10020014603B0BDE8F08FBC
:1001F000C1F30A53C5F30A541C44A0FB02B3C5F370
:10020000130545F4801CC1F3130141F480180CFB65
:10021000023300FB083EA4F2F334810A930A41EA58
:100220008C5143EA88530194A1FB03474FEA9C2574
:1002300005FB03734FEA982601FB06373D052605AB
:1002400045EA1435BBEB06016EEB0503850E920EF5
:1002500045EA8C1542EA8812A5FB0206261E67EBCA
:1002600000070C0D44EA0334A41947EB1350C1F303
:1002700013064FF0000319464FEA033343EA1653BF
:1002800043EA0403019CE5FB0201A4F10C0402947F
:10029000009C4FEA0632CDE900A400F0B9F8A4E7CB
:1002A0002DE9F04D81EA030404F0004B21F00047F2
:1002B00014464FF0000A23F0004150EA070220D014
:1002C00054EA01021DD0C1F30A550246C1F31300DE
:1002D000C7F30A56C7F3130340F4801143F48013A5
:1002E000A6EB0508101BD64608F2FD3873EB01009B
:1002F00002D308F1010801E092185B41B8F1000F48
:1003000003DA00200146BDE8F08D00204FF480158F
:10031000064607460EE0B2EB040C73EB010C04D367
:10032000121B064363EB01032F436D084FEA3000B5
:1003300092185B4150EA050CEDD152EA030012D04D
:1003400082EA040083EA0105284303D100224FF02A
:10035000004308E0101B8B4102D20122002302E07F
:100360006FF0010253101AEB060047EB085110EB37
:100370000A0041EB0B01BDE8F04D00F03CB80EB5B2
:1003800040F2334102910021CDE900110A460B46AB
:1003900000F03EF803B000BD70B5C1F30A5201F0A1
:1003A00000450024C1F3130140F2FF3341F48011F2
:1003B0009A4201DA002070BD40F233439A42A2F221
:1003C000334203DC524200F006F800E090402C4338
:1003D000F1D0404270BD202A04DB203A21FA02F01D
:1003E0000021704721FA02F3D040C2F1200291406F
:1003F00008431946704710B5002B08DA401C41F13C
:10040000000192185B411A4301D120F0010010BD98
:100410002DE9F04D92469B4611B1B1FA81F202E00E
:10042000B0FA80F22032904600F056F806460F46A9
:1004300040EA0A0041EA0B0152465B46084303D1F9
:1004400030463946BDE8F08D194652EA010015D014
:10045000C8F140025046FFF7BEFF04460D46504625
:100460005946424600F038F8084301D0012000E028
:100470000020044345EAE07526432F430A984FEADB
:10048000D625A0EB08000A304FEA46534FF0000291
:1004900045EA47554FEAD72402D500200146D1E767
:1004A000010550196141DDE9084500196941BDE8C0
:1004B000F04DA0E7064C074D06E0E06840F0010370
:1004C00094E8070098471034AC42F6D3FFF760FE7B
:1004D000BC270008DC270008202A04DB203A00FAA9
:1004E00002F1002070479140C2F1200320FA03F38B
:1004F00019439040704770B501EB020410F8015B9E
:1005000015F0070301D110F8013B2A1106D110F8AC
:10051000012B03E010F8016B01F8016B5B1EF9D1B0
:100520002B0705D40023521E0FD401F8013BFAE734
:1005300010F8013B02F10202A1EB030303E013F800
:10054000015B01F8015B521EF9D5A142D6D3002010
:1005500070BD00002DE9F84F454D401E291DC4B265
:10056000444B2E5D002001F5BA7A03F1100B01F522
:10057000A27C01F1840201F17408A1F10809072E9F
:100580001AD2DFE806F01904191B49196D00095D3C
:10059000002911D119F804606EB103262E5509F80F
:1005A00004005AF82400009053F824105BF824004B
:1005B000081A314945E02855BDE8F88F085D002844
:1005C000FAD12E4834B1012C08D0022C1CD0032CB7
:1005D00008D11DE0016841F0010102E0016841F02D
:1005E000020101602448203050F8240000905CF89B
:1005F000240052F82430C0EBC07158F82420601C4D
:1006000000F03EF80420D6E7016841F00401E8E775
:10061000016841F00801E4E7095D0029CCD119F82F
:100620000460002EC7D006262E5509F804005AF89B
:100630002400009053F824105BF82400081A0E4997
:10064000103952F8243051F8241058F82420084466
:100650005CF8241048434142601C00F011F8ABE7FD
:10066000095D0029A8D1285543F82400A4E700001B
:1006700034000020F00100209C010020003C0140DB
:100680002DE9F05F05469A480E1E00EB450700F184
:10069000D80000EB850B974805EB4501DDF828A055
:1006A0009046994600EBC1042BDA9148103000EBDC
:1006B000450030F8021C8E48B83000EB850050F839
:1006C000040C00F096FA02008948A0F1500000EBFB
:1006D000050100F1100011F8011C284401D011B1EE
:1006E0006EE000296CD0002100F8011C012004F804
:1006F000170C37F8021C5BF8040C00F088FA7642FD
:1007000027E07B48083000EB450030F8021C7848B1
:10071000A83000EB850050F8040C00F06AFA0200E3
:100720007348A0F1540000EB050100F1100011F82E
:10073000011C284401D009B142E0E1B3002100F8D6
:10074000011C04F8171C37F8021C5BF8040C00F0BD
:1007500060FA67480A272C3800EB050B012E34D0CD
:10076000002E30D06448B0FBFAF0400844F8080C82
:100770006248B0FBF8F002F00DF8FFF700FE9FEDC5
:10078000601B53EC112BFFF71BFD9FED5F1B53EC20
:10079000112BFFF785FD9FED5E1B53EC112BFFF72F
:1007A0000FFDFFF7F9FD44F8140C02460AFB0AFAA4
:1007B0004FEA480000E003E0BAFBF0F088B346E0FF
:1007C000012100F8011CBDE8F09FA4F118044FF0CE
:1007D000FF3060614FF0020020704FF47A7060606B
:1007E000012D06D0022D09D0032D0CD0042D0FD1E0
:1007F00012E04FF080404763C76209E04648076057
:100800004548083803E04548076044480838076011
:1008100001200BF8010C5EE04148076040480838B1
:10082000F5E713E0042DCED13D480121343809E02D
:100830000121880706E038480121343802E03748B2
:1008400001213438BDE8F05F01F0D2B9012008EB96
:100850000901B6FBF1F101FB09F101B90121814266
:1008600001D8881B04E000FB08F0B0FBF9F040421F
:1008700044F80C0C18B94FF0FF3044F80C0C30441D
:1008800044F8100C54F8080C824203DC44F8140CB1
:10089000032000E0012004F8180C002044F8040CA8
:1008A00001200BF8010C012D06D0022D09D0032DDB
:1008B0000CD0042D0FD115E04FF080404763C76284
:1008C00009E0154807601448083803E0134807603A
:1008D000124808380760012DAAD0022DABD0032D95
:1008E000ADD09FE70E4807600D480838F2E70000DA
:1008F000640000202002002040420F0080841E007F
:100900000000000040A124410000000000408F4092
:10091000000000000000E03F3404004034080040C4
:10092000340C0040FEE7704710B5012000F0C0F81D
:10093000002815D00B480B491031006808600A499F
:10094000012008700831097811B107490839087089
:10095000012000F0A7F80548016821F001010160BD
:1009600010BD0000F001002030000020003C0140DC
:1009700010B5022000F09CF8002815D00B480B4958
:100980001031406848600A490120487008314978B0
:1009900011B1074908394870022000F083F8054872
:1009A000016821F00201016010BD0000F00100208B
:1009B00030000020003C014010B5042000F078F821
:1009C000002815D00B480B491031806888600A490F
:1009D000012088700831897811B107490839887079
:1009E000042000F05FF80548016821F0040101606F
:1009F00010BD0000F001002030000020003C01404C
:100A000010B5082000F054F8002815D00B480B4909
:100A10001031C068C8600A490120C8700831C9781F
:100A200011B107490839C870082000F03BF80548A3
:100A3000016821F00801016010BD0000F0010020F4
:100A400030000020003C014010B50121880300F077
:100A5000D3F9134C0220217800F028FA61780220A3
:100A600000F024FAA178022000F020FAE1780220B8
:100A700000F01CFA04F5A870D0E900121143D0E987
:100A80000220024304F1780011430160002101714A
:100A90000821417101218171BDE8104000F018B8B2
:100AA0001C0000200149086070470000143C014010
:100AB000064A014600201268044B0A4014331B68A2
:100AC0000B4202D0002A00D001207047003C0140B8
:100AD00030B51A4A8379016853B313688B431360A6
:100AE000111D0B680468A3430B60017911440B6866
:100AF000046823430B60114B083319680468A14351
:100B000019601C1D21680568A943216041791029DD
:100B100005D011440A68006802430A6030BD1968B4
:100B2000026811431960216800680143216030BDEB
:100B30000079104402688A43026030BD003C0140E5
:100B400003490A68034B33F8100002430A607047F8
:100B5000003C01407C000020F0B5002201264FF04F
:100B6000030C0C6806FA02F31C409C422DD1056868
:100B700053000CFA03F4A54305600D7907689D4006
:100B80003D4305600D79012D01D0022D12D18568FC
:100B9000A54385604C7985689C402C4384604468FB
:100BA00006FA02F5AC43446044688D799540ADB2D5
:100BB0002C434460C46855000CFA05F7BC43C4607C
:100BC000CC799C40C3681C43C460521C102AC8D313
:100BD000F0BD4B07DB0E9A40C90810B500EB810051
:100BE000016A0F249C40A1430162016A1143016222
:100BF00010BD0246002012690A4200D00120704751
:100C00000246002052690A4200D001207047418309
:100C1000704701837047FEE770B50446244800EB37
:100C2000440030F8021C2248A03000EB840050F849
:100C3000040CFFF7DEFF02001D484FF00105A0F194
:100C40005C0000EB040100F1100011F8011C2044CD
:100C50004FF0000601D009B11EE0E9B100F8016CC7
:100C60001348083000EB440030F8021C1048B03044
:100C700000EB840050F8040CFFF7BBFF02000C48A7
:100C8000A0F1580000EB040100F1100011F8011C64
:100C900020440AD019B105E000F8015CE0E700F853
:100CA000016C70BD00F8015C70BD0029FAD0F6E758
:100CB0006C000020FEE7704738B54FF4407000F03C
:100CC00077F81D208DF8000000208DF80100012428
:100CD0008DF80340684600F037F81E208DF80000BC
:100CE000684600F031F832208DF80000684600F0C8
:100CF0002BF81C208DF80000684600F025F826200F
:100D00008DF800008DF80140684600F01DF80620BF
:100D10008DF8000002208DF80100684600F014F8FC
:100D200007208DF80000684600F00EF808208DF8C6
:100D30000000684600F008F809208DF800006846B9
:100D400000F002F838BD000070B50F23C2780178BA
:100D500001244FF0E025EAB1134A1268867802F4C4
:100D6000E062C2F5E062C2F30722D340C2F1040C94
:100D700042781E4002FA0CF20C4B16433201CA5460
:100D8000007800F01F018C40400905EB8000C0F89E
:100D9000004170BD01F01F008440480905EB800050
:100DA000C0F8804170BD00000CED00E000E400E000
:100DB0000249084302490860704700000000FA0534
:100DC0000CED00E070470000044A0029116801D0D2
:100DD000014300E081431160704700003038024059
:100DE000044A0029116801D0014300E081431160E9
:100DF0007047000040380240044A0029116801D0C1
:100E0000014300E081431160704700004438024014
:100E100030B5224B1968224C11F00C0104D065103A
:100E2000042903D0082903D004601DE005601BE0FD
:100E30001A4A121F1168C1F3805C1168BCF1000FDF
:100E400001F03F0102D0B5FBF1F101E0B4FBF1F19B
:100E500014681268C4F388146143C2F30142521C3F
:100E60005200B1FBF2F1016019680E4A01F0F00185
:100E70000909545C0168E14041601C6804F4E054D5
:100E8000A40A145D21FA04F484601B6803F460432F
:100E90005B0BD25CD140C16030BD0000083802401D
:100EA0000024F400CC0100207047000010B58A0730
:100EB00021F003040649120F21440F230C689340CC
:100EC0009C430C600B68904003430B6010BD000016
:100ED00008380140224A0020116841F48031116035
:100EE0004FF4A063116800F1010011F4003F01D13B
:100EF0009842F7D11068800331D519484030016815
:100F000041F0805101601748016841F4804101605F
:100F10001348083001680160016841F40041016034
:100F2000016841F4A0510160031F0F491960116865
:100F300041F08071116011688901FCD50B4A40F2C3
:100F400005611160016821F003010160016841F051
:100F5000020101600168C1F381010229FAD17047E1
:100F6000003802400070004008544007003C024036
:100F700070470000124810B5016841F4700101602B
:100F80001048016841F0010101600E4A0021083259
:100F9000116002680C4B1A400260031D0B4A1A6074
:100FA000026822F48022026006480C300160FFF7DC
:100FB00091FF03494FF000608039086010BD0000C8
:100FC00088ED00E000380240FFFFF6FE10300024FC
:100FD0002DE9F05F01218F07384600F013FE18B1AC
:100FE0000121384600F001FEB24E71687963F96262
:100FF000307858B1B04D01212846FFF701FE012895
:101000004FF00101284622D0FFF703FEDFF8AC9233
:1010100099F80300401CC0B289F80300022879D176
:10102000A448002589F80350017899B13038DFF8D9
:1010300090B2012709F1DC0A09F1200E09F128021A
:10104000012915D0022976D0032910D187E0FFF7B6
:10105000DEFDDBE7C9F84C5000213846C9F8505096
:1010600000F0C6FD9548383005700C3805701CE15D
:10107000D9F84C80DFF83CC208F10108C9F84C806F
:101080009CF801100368F1B15B1E0360DCF81440AA
:101090000126641CCCF81440DCF80400D9F8503068
:1010A00006EB840603EB400393FBF6F706FB1736CB
:1010B000C9F85060DCF80830C41B43451378A4B26B
:1010C0001AD9D3B901E05B1CDFE79EF8002002B11A
:1010D00091B37A4A243212780AB101291BD0DCF884
:1010E0001000A042C3DBA9F80C4084B20320C9F869
:1010F00050508CF80000D8E06BB11570DAF8002081
:101100009BFBF2F16F4A514391FBF0F191FBF0F040
:1011100040420CE0CBE09EF8002002B161B1674A8A
:10112000243212780AB1012907D0DCF80C00CCF87F
:1011300014000220DDE763E0FFE7DAF800209BFB04
:10114000F2F1604A514391FBF0F191FBF0F0404223
:10115000CCF81400594901202C310870E9E7D9F87E
:101160004C60544B761CC9F84C605978046849B1FE
:10117000641E0460186984B29868B04210780ED971
:1011800070B901E0641CF4E79EF8000000B131B3CF
:101190004A482430007808B301290FD085E068B1AF
:1011A0001570DAF8001047489BFBF1F1414358688D
:1011B00091FBF0F191FBF0F040420AE09EF8000054
:1011C00000B161B13D482430007808B1012906D052
:1011D000D8685861B9F80C400220187065E0DAF858
:1011E000001038489BFBF1F14143586891FBF0F146
:1011F00091FBF0F0314940422C3158610F70E9E722
:10120000D9F84C102B4B491CC9F84C10597804687C
:1012100031B3641E04605C699C46641C5C61586860
:10122000D9F85030B84603EB400307EB840793FB33
:10123000F7F607FB1633C9F85030841B1378A4B2B5
:1012400083B11570DAF800201E499BFBF2F24A4385
:1012500092FBF0F292FBF0F04042CCF814001EE05A
:10126000641CD7E7154B2C331A78C2B99EF80020BE
:1012700002B129B1114A2432127882B101290ED16A
:10128000DAF800200F499BFBF2F24A4392FBF0F29E
:1012900092FBF0F04042CCF8140083F80080DCF8B8
:1012A0001410002901DB8CF8005002484460BDE8AE
:1012B000F09F0000200200200010024000000020EB
:1012C00020A1070040420F002DE9F05FB94F012136
:1012D000384600F097FC18B10121384600F085FC33
:1012E000B54EB4493431F0690860B2492C31086018
:1012F000307E58B1B14D04212846FFF781FC01280A
:101300004FF00401284622D0FFF783FCDFF8B092AB
:1013100099F80200401CC0B289F80200022879D175
:10132000A548002589F80250017E99B13038DFF8D0
:1013300094B2012709F1DC0A09F1200E09F1280213
:10134000012915D0022976D0032910D187E0FFF7B3
:101350005EFCDBE7C9F8445000213846C9F8485024
:1013600000F046FC9648383045700C3845701CE15A
:10137000D9F84480DFF840C208F10108C9F8448078
:101380009CF819104368F1B15B1E4360DCF82C40F7
:101390000126641CCCF82C40DCF81C00D9F848303D
:1013A00006EB840603EB400393FBF6F706FB1736C8
:1013B000C9F84860DCF82030C41B43455378A4B218
:1013C0001AD9D3B901E05B1CDFE79EF8012002B116
:1013D00091B37B4A243252780AB101291BD0DCF840
:1013E0002800A042C3DBA9F80A4084B20320C9F850
:1013F00048508CF81800D8E06BB15570DAF804202A
:101400009BFBF2F1704A514391FBF0F191FBF0F03C
:1014100040420CE0CBE09EF8012002B161B1684A85
:10142000243252780AB1012907D0DCF82400CCF824
:101430002C000220DDE763E0FFE7DAF804209BFBE5
:10144000F2F1614A514391FBF0F191FBF0F040421F
:10145000CCF82C005A4901202C314870E9E7D9F822
:101460004460554B761CC9F84460597E446849B1C4
:10147000641E4460986A84B2186AB04250780ED9EB
:1014800070B901E0641CF4E79EF8010000B131B3CB
:101490004B482430407808B301290FD085E068B16B
:1014A0005570DAF8041048489BFBF1F14143D869C4
:1014B00091FBF0F191FBF0F040420AE09EF8010050
:1014C00000B161B13E482430407808B1012906D00E
:1014D000586AD862B9F80A400220187665E0DAF84E
:1014E000041039489BFBF1F14143D86991FBF0F1BD
:1014F00091FBF0F0324940422C31D8624F70E9E75D
:10150000D9F844102C4B491CC9F84410597E446842
:1015100031B3641E4460DC6A9C46641CDC62D8699A
:10152000D9F84830B84603EB400307EB840793FB38
:10153000F7F607FB1633C9F84830841B5378A4B27A
:1015400083B15570DAF804201F499BFBF2F24A433D
:1015500092FBF0F292FBF0F04042CCF82C001EE03F
:10156000641CD7E7164B2C335A78C2B99EF8012079
:1015700002B129B1124A2432527882B101290ED126
:10158000DAF8042010499BFBF2F24A4392FBF0F296
:1015900092FBF0F04042CCF82C0083F80180DCF89C
:1015A0002C10002901DB8CF818500348C461BDE8F9
:1015B000F09F0000000400402002002000100240C4
:1015C0000000002020A1070040420F002DE9F05F3D
:1015D000BB4F0121384600F015FB18B101213846F8
:1015E00000F003FBB74EB6493431706B0860B44964
:1015F0002C31086096F8300058B1B34D10212846C0
:10160000FFF7FEFA01284FF01001284623D0FFF71C
:1016100000FBDFF8B89299F80100401CC0B289F8CD
:10162000010002287AD1A748002589F8015090F8D6
:10163000301099B13038DFF898B2012709F1DC0A8F
:1016400009F1200E09F12802012915D0022976D0CE
:10165000032910D187E0FFF7DAFADAE7C9F83C503E
:1016600000213846C9F8405000F0C2FA9748383097
:1016700085700C3885701FE1D9F83C80DFF844C2D2
:1016800008F10108C9F83C809CF831108368F1B179
:101690005B1E8360DCF844400126641CCCF84440A7
:1016A000DCF83400D9F8403006EB840603EB400345
:1016B00093FBF6F706FB1736C9F84060DCF83830C4
:1016C000C41B43459378A4B21AD9D3B901E05B1C7B
:1016D000DFE79EF8022002B191B37C4A243292786F
:1016E0000AB101291BD0DCF84000A042C3DBA9F8F5
:1016F000084084B20320C9F840508CF83000DBE089
:101700006BB19570DAF808209BFBF2F1714A5143F6
:1017100091FBF0F191FBF0F040420CE0CEE09EF83E
:10172000022002B161B1694A243292780AB10129DA
:1017300007D0DCF83C00CCF844000220DDE765E08F
:10174000FFE7DAF808209BFBF2F1624A514391FB74
:10175000F0F191FBF0F04042CCF844005B490120ED
:101760002C318870E9E7D9F83C60564B761CC9F8F3
:101770003C6093F83110846849B1641E8460186C31
:1017800084B2986BB04290780ED970B901E0641CB5
:10179000F4E79EF8020000B139B34C482430807859
:1017A00010B301290FD087E068B19570DAF80810FE
:1017B00048489BFBF1F14143586B91FBF0F191FBE1
:1017C000F0F040420AE09EF8020000B169B13F48E3
:1017D0002430807808B1012907D0D86B5864B9F853
:1017E0000840022083F8300066E0DAF80810394833
:1017F0009BFBF1F14143586B91FBF0F191FBF0F051
:10180000324940422C3158648F70E8E7D9F83C10D7
:101810002C4B491CC9F83C1093F83110846831B343
:10182000641E84605C6C9C46641C5C64586BD9F8D4
:101830004030B84603EB400307EB840793FBF7F611
:1018400007FB1633C9F84030841B9378A4B283B1E8
:101850009570DAF808201F499BFBF2F24A4392FB8D
:10186000F0F292FBF0F04042CCF844001EE0641C21
:10187000D7E7164B2C339A78C2B99EF8022002B1F2
:1018800029B1124A2432927882B101290ED1DAF8B4
:10189000082010499BFBF2F24A4392FBF0F292FBC4
:1018A000F0F04042CCF8440083F80280DCF84410A9
:1018B000002901DB8CF8305002484463BDE8F09FFA
:1018C000000800402002002000100240000000201C
:1018D00020A1070040420F002DE9F05FBB4F01211E
:1018E000384600F08FF918B10121384600F07DF933
:1018F000B74EB6493431F06C0860B4492C310860F9
:1019000096F8480058B1B34D40212846FFF778F9C2
:1019100001284FF04001284623D0FFF77AF9DFF87D
:10192000B89299F80400401CC0B289F8040002285B
:101930007AD1A748002589F8045090F8481099B149
:101940003038DFF898B2012709F1DC0A09F1200EDE
:1019500009F12802012915D0022976D0032910D1D6
:1019600087E0FFF754F9DAE7C9F854500021384608
:10197000C9F8585000F03CF997483830C5700C3819
:10198000C5701FE1D9F85480DFF844C208F101089E
:10199000C9F854809CF84910C368F1B15B1EC3605C
:1019A000DCF85C400126641CCCF85C40DCF84C00A0
:1019B000D9F8583006EB840603EB400393FBF6F7A7
:1019C00006FB1736C9F85860DCF85030C41B434595
:1019D000D378A4B21AD9D3B901E05B1CDFE79EF833
:1019E000032002B191B37C4A2432D2780AB1012992
:1019F0001BD0DCF85800A042C3DBA9F80E4084B22B
:101A00000320C9F858508CF84800DBE06BB1D57062
:101A1000DAF80C209BFBF2F1714A514391FBF0F193
:101A200091FBF0F040420CE0CEE09EF8032002B1C2
:101A300061B1694A2432D2780AB1012907D0DCF8B1
:101A40005400CCF85C000220DDE765E0FFE7DAF83F
:101A50000C209BFBF2F1624A514391FBF0F191FBA8
:101A6000F0F04042CCF85C005B4901202C31C8709A
:101A7000E9E7D9F85460564B761CC9F8546093F8DE
:101A80004910C46849B1641EC460986D84B2186D71
:101A9000B042D0780ED970B901E0641CF4E79EF82A
:101AA000030000B139B34C482430C07810B3012989
:101AB0000FD087E068B1D570DAF80C1048489BFB6E
:101AC000F1F14143D86C91FBF0F191FBF0F0404211
:101AD0000AE09EF8030000B169B13F482430C078A5
:101AE00008B1012907D0586DD865B9F80E40022019
:101AF00083F8480066E0DAF80C1039489BFBF1F1F6
:101B00004143D86C91FBF0F191FBF0F03249404237
:101B10002C31D865CF70E8E7D9F854102C4B491C0C
:101B2000C9F8541093F84910C46831B3641EC460F6
:101B3000DC6D9C46641CDC65D86CD9F85830B8461E
:101B400003EB400307EB840793FBF7F607FB163321
:101B5000C9F85830841BD378A4B283B1D570DAF8B1
:101B60000C201F499BFBF2F24A4392FBF0F292FBDE
:101B7000F0F04042CCF85C001EE0641CD7E7164B46
:101B80002C33DA78C2B99EF8032002B129B1124A87
:101B90002432D27882B101290ED1DAF80C20104912
:101BA0009BFBF2F24A4392FBF0F292FBF0F04042D0
:101BB000CCF85C0083F80380DCF85C10002901DBC2
:101BC0008CF848500248C464BDE8F09F000C004007
:101BD00020020020001002400000002020A1070089
:101BE00040420F00C94301827047C94301827047D8
:101BF0000029018802D041F0010101E021F001013A
:101C00000180704702460020138A92890B4202EA43
:101C1000010202D0002A00D001207047002A8289E8
:101C200001D00A4300E08A438281704730B5028CBC
:101C300022F001020284028C8388048B22F00202CB
:101C400024F0730C0C88144D44EA0C04B1F80CC059
:101C5000A8424CEA020C4A8842EA0C0202D00F4D1C
:101C6000A84212D122F0080CCA8923F4407342EA38
:101C70000C0222F0040C8A8842EA0C02B1F810C06F
:101C80004CEA030C4B8A43EA0C0383800483896883
:101C90004163028430BD00000000014000040140A7
:101CA000028B22F008020A43028370470185828278
:101CB0007047000030B50288164C174DA0420DD079
:101CC000A8420BD0B0F1804F08D0144B984205D0F9
:101CD000134B984202D0134B984203D122F0700369
:101CE0004A881A43104B984206D0104B984203D0B2
:101CF00022F440730A891A4302804A68C2620A8841
:101D00000285A04201D0A84201D1897A0186012131
:101D1000818230BD00000140000401400004004009
:101D200000080040000C004000100040001400407B
:101D30002DE9F043012189B00846FFF751F8012150
:101D40000220FFF74DF801210420FFF749F8012197
:101D50000820FFF745F800254FF6FF700190ADF819
:101D600000504FF08046ADF80850ADF8025069467B
:101D70003046FFF79FFF324F69463846FFF79AFF1C
:101D8000DFF8C08069464046FFF794FFDFF8B8905F
:101D900069464846FFF78EFF2C482D49012200680E
:101DA000B0FBF1F0401E84B221463046FFF77EFFC3
:101DB000012221463846FFF779FF0122214640469D
:101DC000FFF774FF012221464846FFF76FFFADF889
:101DD0000C500120ADF80E000A200590ADF8185007
:101DE00003A93846FFF722FF00213846FFF758FFC6
:101DF00001213046FFF7F6FE01213846FFF7F2FEDB
:101E000001214046FFF7EEFE01214846FFF7EAFEBA
:101E1000012211463046FFF701FF012211463846E4
:101E2000FFF7FCFE012211464046FFF7F7FE0122B4
:101E300011464846FFF7F2FE09B0BDE8F083000006
:101E40000004004000080040000C0040DC010020BD
:101E500080841E0070B5164C40F225552946204658
:101E600000F089F8002821D000222946204600F001
:101E7000A1F8204600F012F90F49C3B20D488A7943
:101E80000026232B835405D0521CD0B288713228EF
:101E900004D004E08E710120487100E08E71294663
:101EA0002046BDE87040012200F084B870BD0000FB
:101EB0000044004090020020000000200029818999
:101EC00002D041F4005101E021F4005181817047BA
:101ED0007CB522484FF41651002401608480C480F0
:101EE000048184810C21418101214804FEF778FF9F
:101EF0001B4E072202213046FEF76BFE072203210C
:101F00003046FEF766FE0420022500908DF804504E
:101F10008DF8064003208DF805008DF807406946CE
:101F20003046FEF719FE082000908DF8045001207D
:101F30008DF8070069463046FEF70EFE094C07494A
:101F4000204600F04FF8012240F22551204600F0D3
:101F500031F801212046FFF7B1FF7CBD800200204F
:101F600000000240004400400246002012880A425D
:101F700000D00120704730B501F01F0C012500246E
:101F8000C1F3421305FA0CF2012B0FD0022B0FD034
:101F9000838A4FEA11210088134205FA01F500EA0D
:101FA000050001D000B10124204630BD8389F0E74F
:101FB000038AEEE7C1F3421301F01F0C012101FA7D
:101FC0000CF1012B07D0022B07D01430002A026835
:101FD00005D00A4304E00C30F8E71030F6E78A43F6
:101FE000026070477FB50446008A0D4620F44051D8
:101FF000E88808432082A18941F20C608143A888C7
:102000002A8910436A890A431043A081A08A20F4D8
:102010004071A8890843A0826846FEF7F9FE1D4872
:10202000844202D01C48844201D1039800E0029807
:10203000A1890904002900EBC00101EB0010296807
:1020400002DA4FEA410101E04FEA8101B0FBF1F011
:102050006422B0FBF2F14FEA01114FEA11136FF065
:1020600018056B4300EB8300A3891D044FF0320376
:1020700006D503EBC000B0FBF2F000F0070005E06E
:1020800003EB0010B0FBF2F000F00F0008432081DA
:102090007FBD000000100140001401408088C0F3A3
:1020A00008007047C1F3080181807047FEE702E035
:1020B00008C8121F08C1002AFAD1704770470020D3
:1020C00001E001C1121F002AFBD17047FF4808B58B
:1020D0000024C471264601211520FEF775FEFB4D34
:1020E0004FF0020B8C35A5F1080905F1D00A4FF02D
:1020F00003080127F548F5495C308C3130F81400AD
:1021000028602F71AE71F24885F80580EE7150F8A5
:102110002400FEF721FDED48EC4964308C3130F8A5
:1021200014002860EA48103050F82400FEF714FD2F
:10213000E648E6496C308C3130F814002860E448F9
:102140002E712038EF7150F82400FEF705FDDF48AE
:10215000DE4974308C3130F814002860DC481038C7
:1021600050F82400FEF7F8FCD848D8497C308C3170
:1021700030F814002860D648203050F82400FEF7CC
:10218000EBFC39F814002860D04985F807B05AF8FC
:1021900024008C31FEF7E0FC641CE4B2042CA9D3CB
:1021A000102028602F710021A97103206871BB469F
:1021B000E971C649C74F8C313846FEF7CDFCFFF7B1
:1021C000B7FDFFF785FEFEF73FFCFEF775FD4D46B8
:1021D000B9F800105646DAF80000FEF70AFDBB4CCD
:1021E000217841EA4000207069887068FEF701FD9F
:1021F000217841EA80002070A988B068FEF7F9FCD8
:10220000217841EAC0002070E988F068FEF7F1FC0F
:10221000217841EA0010207010213846FEF7F7FCC3
:1022200004F5B67A04F1940904F5BE770120FEF7AF
:10223000F3FC0220FEF7F0FC0320FEF7EDFC042087
:10224000FEF7EAFCA14C607900287CD0002240F225
:102250002551A148FFF7AEFE2146A04E002048714F
:102260003078012424286FD19848717802240078AE
:102270008142F8D1315D641CE0B20C2965D009DCE3
:102280000C291BD2DFE801F01A1C4074818B949E4C
:10229000B01AD3DC122974D008DCA1F10D01052994
:1022A0000CD2DFE801F0F2F1F0EFEE00132969D073
:1022B000142968D0152967D064296FD0401DB4E077
:1022C000325C401C521EC1B2D0B2804A3832125C1D
:1022D000002A76D1725C491CC9B27D4C735C491CE2
:1022E000C9B242EA0322735C491CC9B242EA034202
:1022F000735C491CCDB242EA0361784A903CA03A33
:1023000052F82020891A1DE0325C401C521EC1B2D6
:10231000D0B26E4A3832125C002ADAD1725C491CA3
:10232000C9B26B4C735C491CC9B242EA0322735CAC
:10233000491CC9B242EA0342903C735C491CCDB2CD
:1023400042EA036102E00DE2E8E193E1604A44F809
:102350002010603A52F8202000925D4A703A52F8FC
:102360002030103A52F82020401CB5E1CDB2CFE128
:10237000315C401C491EC0B2554CC9B2325C603C55
:102380003EE0B1E082E05CE163E0315C401C491E6C
:10239000C0B24F4CC9B2325C803C31E05BE1315C91
:1023A000401C491EC0B24A4CC9B2325C703C27E0A6
:1023B000315C401C491EC0B2454CC9B2325C503C35
:1023C0001EE055E1325C401C521EC1B2D0B23F4A01
:1023D0003832125C1AB13D4B283303F800B03B4B46
:1023E000002234331A5443E1315C384A491E401C00
:1023F000C9B23832C0B2525CB2B9384C325CA03C7F
:10240000401CC0B2335C401CC0B242EA0322335CC1
:10241000401CC0B242EA0342335C401CC5B242EAEF
:10242000036044F8210073E1001DC5B270E1315C26
:10243000401C491EC0B2264CC9B2325C403CDFE7AA
:10244000315C401C491EC0B2214CC9B2325C303CE8
:10245000D6E7325C401C521EC1B2D0B21F4AA03A2D
:1024600052F820007054491CC9B202127254491C1F
:10247000C9B202147254491CC9B200167054491CE6
:1024800074E7C3E0BAE0CAE081E0D1E0401CC1B229
:10249000705C891CC9B2725C10400C4A00F00103E8
:1024A0001032C0F340041370131D1C70C0F380047D
:1024B0005470C0F3C0045C70C0F300149470C0F397
:1024C00040149C70C0F38014D47009E00000002018
:1024D0002C01002000000240004400409002002037
:1024E000C009D870891C41E7401CC0B2345C801C14
:1024F00000F0FF0816F80850E8070DD0DAF80010D1
:10250000E007C9F8001001D0082100E00C2189F88B
:1025100005109B48FEF7DCFA6810C0070ED060106B
:10252000DAF80410C007C9F8001001D0082100E053
:102530000C2189F805109248FEF7CAFAA810C007C6
:102540000ED0A010DAF80810C007C9F8001001D0AA
:10255000082100E00C2189F805108948FEF7B8FA37
:10256000E81080070ED0E010DAF80C108007C9F8E8
:10257000001001D0082100E00C2189F805108048E6
:10258000FEF7A6FA08F1020808F0FF05C0E0401CBB
:10259000C1B2705C891CCAB2B15CCB0707D0C3075B
:1025A00002D0C7F800B002E04FF0FF333B604B08A9
:1025B000DB0708D04310DB0702D0C7F804B002E005
:1025C0004FF0FF337B608B08DB0708D08310DB07FD
:1025D00002D0C7F808B002E04FF0FF33BB60C90873
:1025E000C90708D0C010C00702D0C7F80CB002E07D
:1025F0004FF0FF30F860921CD5B289E0315C614C3D
:10260000491E401CC0B2C9B2325CF9E6315C401CC4
:10261000491EC0B25B4CC9B2325C1034F0E6315C8A
:10262000401C491EC0B2574CC9B2325C103CE7E6B0
:10263000315C401C491EC0B2524CC9B2325C203CD5
:10264000DEE6315C4E4A491E401CC9B25C3AC0B25B
:10265000515C3154E8E6325C401C521EC1B2D0B22B
:10266000474A5C3A125C1AB9474B002243F82020D3
:10267000091D7BE6315CDFF80881491E401CCCB2A5
:10268000A8F16008C5B218F8040038BB08F148008A
:1026900030F81410D03050F82400FEF7AAFA0028C1
:1026A000A8F11C00005D01D008B118E0B8B108F82D
:1026B00004B02046FEF744FA324850F82400009057
:1026C0002F48283050F82430103850F8242057F87C
:1026D0002400C0EB8071601CFDF7D2FF18E0294890
:1026E00050F824000090274857F82410103850F86C
:1026F0002400484341422248283050F82430103802
:1027000050F82420601CFDF7BBFF032008F80400EC
:10271000705D6D1CECB226283FF4ACAD184800216A
:1027200094388046C171194D0FE0315C2846FFF79F
:10273000B9FC40212846FFF717FC0028F9D098F88B
:1027400007104046491C88F80710C079A042ECD316
:1027500010210F48FEF75BFA012240F2255128466E
:10276000FFF728FC0120FDF7F5FE0220FDF7F2FE41
:102770000320FDF7EFFE0420FDF7ECFE56E5000018
:1027800094000020AC010020100200200044004012
:1027900000000240024600204FF08041431893425F
:1027A00002D8D21A012300E00023400803B10844F4
:1027B0008908F3D1904200D2401C7047DC27000802
:1027C00000000020F0010000F6040008582800086E
:1027D000F0010020D8040000BE20000801181A01F2
:1027E0000111043C010203120112041210124012E2
:1027F0000212081220FA80111A01091A040B1A8019
:10280000134905E1BCF0490204231027092A04CB2F
:10281000E8FD04DDFFFFFF7F04B901110C3B10024E
:1028200040040A1508044A04043201320232043218
:10283000082910A904CBE8030411CA1904E9E0CB64
:10284000D00704412D01020304041506070809847A
:082850007A030A69140000007C
:040000050800018965
:00000001FF
